{
	"compilerInput": "{\"language\":\"Solidity\",\"settings\":{\"optimizer\":{\"enabled\":true,\"runs\":200},\"outputSelection\":{\"*\":{\"\":[\"ast\"],\"*\":[\"abi\",\"metadata\",\"devdoc\",\"userdoc\",\"storageLayout\",\"evm.legacyAssembly\",\"evm.bytecode\",\"evm.deployedBytecode\",\"evm.methodIdentifiers\",\"evm.gasEstimates\",\"evm.assembly\"]}},\"remappings\":[]},\"sources\":{\"contracts/2_Owner.sol\":{\"content\":\"// SPDX-License-Identifier: GPL-3.0\\n\\npragma solidity >=0.7.0 <0.9.0;\\n\\nimport \\\"hardhat/console.sol\\\";\\n\\n/**\\n * @title Owner\\n * @dev Set & change owner\\n */\\ncontract Owner {\\n\\n    address private owner;\\n\\n    // event for EVM logging\\n    event OwnerSet(address indexed oldOwner, address indexed newOwner);\\n\\n    // modifier to check if caller is owner\\n    modifier isOwner() {\\n        // If the first argument of 'require' evaluates to 'false', execution terminates and all\\n        // changes to the state and to Ether balances are reverted.\\n        // This used to consume all gas in old EVM versions, but not anymore.\\n        // It is often a good idea to use 'require' to check if functions are called correctly.\\n        // As a second argument, you can also provide an explanation about what went wrong.\\n        require(msg.sender == owner, \\\"Caller is not owner\\\");\\n        _;\\n    }\\n\\n    /**\\n     * @dev Set contract deployer as owner\\n     */\\n    constructor() {\\n        console.log(\\\"Owner contract deployed by:\\\", msg.sender);\\n        owner = msg.sender; // 'msg.sender' is sender of current call, contract deployer for a constructor\\n        emit OwnerSet(address(0), owner);\\n    }\\n\\n    /**\\n     * @dev Change owner\\n     * @param newOwner address of new owner\\n     */\\n    function changeOwner(address newOwner) public isOwner {\\n        require(newOwner != address(0), \\\"New owner should not be the zero address\\\");\\n        emit OwnerSet(owner, newOwner);\\n        owner = newOwner;\\n    }\\n\\n    /**\\n     * @dev Return owner address \\n     * @return address of owner\\n     */\\n    function getOwner() external view returns (address) {\\n        return owner;\\n    }\\n} \\n\"},\"hardhat/console.sol\":{\"content\":\"// SPDX-License-Identifier: MIT\\npragma solidity >=0.4.22 <0.9.0;\\n\\nlibrary console {\\n    address constant CONSOLE_ADDRESS =\\n        0x000000000000000000636F6e736F6c652e6c6f67;\\n\\n    function _sendLogPayloadImplementation(bytes memory payload) internal view {\\n        address consoleAddress = CONSOLE_ADDRESS;\\n        /// @solidity memory-safe-assembly\\n        assembly {\\n            pop(\\n                staticcall(\\n                    gas(),\\n                    consoleAddress,\\n                    add(payload, 32),\\n                    mload(payload),\\n                    0,\\n                    0\\n                )\\n            )\\n        }\\n    }\\n\\n    function _castToPure(\\n      function(bytes memory) internal view fnIn\\n    ) internal pure returns (function(bytes memory) pure fnOut) {\\n        assembly {\\n            fnOut := fnIn\\n        }\\n    }\\n\\n    function _sendLogPayload(bytes memory payload) internal pure {\\n        _castToPure(_sendLogPayloadImplementation)(payload);\\n    }\\n\\n    function log() internal pure {\\n        _sendLogPayload(abi.encodeWithSignature(\\\"log()\\\"));\\n    }\\n\\n    function logInt(int256 p0) internal pure {\\n        _sendLogPayload(abi.encodeWithSignature(\\\"log(int256)\\\", p0));\\n    }\\n\\n    function logUint(uint256 p0) internal pure {\\n        _sendLogPayload(abi.encodeWithSignature(\\\"log(uint256)\\\", p0));\\n    }\\n\\n    function logString(string memory p0) internal pure {\\n        _sendLogPayload(abi.encodeWithSignature(\\\"log(string)\\\", p0));\\n    }\\n\\n    function logBool(bool p0) internal pure {\\n        _sendLogPayload(abi.encodeWithSignature(\\\"log(bool)\\\", p0));\\n    }\\n\\n    function logAddress(address p0) internal pure {\\n        _sendLogPayload(abi.encodeWithSignature(\\\"log(address)\\\", p0));\\n    }\\n\\n    function logBytes(bytes memory p0) internal pure {\\n        _sendLogPayload(abi.encodeWithSignature(\\\"log(bytes)\\\", p0));\\n    }\\n\\n    function logBytes1(bytes1 p0) internal pure {\\n        _sendLogPayload(abi.encodeWithSignature(\\\"log(bytes1)\\\", p0));\\n    }\\n\\n    function logBytes2(bytes2 p0) internal pure {\\n        _sendLogPayload(abi.encodeWithSignature(\\\"log(bytes2)\\\", p0));\\n    }\\n\\n    function logBytes3(bytes3 p0) internal pure {\\n        _sendLogPayload(abi.encodeWithSignature(\\\"log(bytes3)\\\", p0));\\n    }\\n\\n    function logBytes4(bytes4 p0) internal pure {\\n        _sendLogPayload(abi.encodeWithSignature(\\\"log(bytes4)\\\", p0));\\n    }\\n\\n    function logBytes5(bytes5 p0) internal pure {\\n        _sendLogPayload(abi.encodeWithSignature(\\\"log(bytes5)\\\", p0));\\n    }\\n\\n    function logBytes6(bytes6 p0) internal pure {\\n        _sendLogPayload(abi.encodeWithSignature(\\\"log(bytes6)\\\", p0));\\n    }\\n\\n    function logBytes7(bytes7 p0) internal pure {\\n        _sendLogPayload(abi.encodeWithSignature(\\\"log(bytes7)\\\", p0));\\n    }\\n\\n    function logBytes8(bytes8 p0) internal pure {\\n        _sendLogPayload(abi.encodeWithSignature(\\\"log(bytes8)\\\", p0));\\n    }\\n\\n    function logBytes9(bytes9 p0) internal pure {\\n        _sendLogPayload(abi.encodeWithSignature(\\\"log(bytes9)\\\", p0));\\n    }\\n\\n    function logBytes10(bytes10 p0) internal pure {\\n        _sendLogPayload(abi.encodeWithSignature(\\\"log(bytes10)\\\", p0));\\n    }\\n\\n    function logBytes11(bytes11 p0) internal pure {\\n        _sendLogPayload(abi.encodeWithSignature(\\\"log(bytes11)\\\", p0));\\n    }\\n\\n    function logBytes12(bytes12 p0) internal pure {\\n        _sendLogPayload(abi.encodeWithSignature(\\\"log(bytes12)\\\", p0));\\n    }\\n\\n    function logBytes13(bytes13 p0) internal pure {\\n        _sendLogPayload(abi.encodeWithSignature(\\\"log(bytes13)\\\", p0));\\n    }\\n\\n    function logBytes14(bytes14 p0) internal pure {\\n        _sendLogPayload(abi.encodeWithSignature(\\\"log(bytes14)\\\", p0));\\n    }\\n\\n    function logBytes15(bytes15 p0) internal pure {\\n        _sendLogPayload(abi.encodeWithSignature(\\\"log(bytes15)\\\", p0));\\n    }\\n\\n    function logBytes16(bytes16 p0) internal pure {\\n        _sendLogPayload(abi.encodeWithSignature(\\\"log(bytes16)\\\", p0));\\n    }\\n\\n    function logBytes17(bytes17 p0) internal pure {\\n        _sendLogPayload(abi.encodeWithSignature(\\\"log(bytes17)\\\", p0));\\n    }\\n\\n    function logBytes18(bytes18 p0) internal pure {\\n        _sendLogPayload(abi.encodeWithSignature(\\\"log(bytes18)\\\", p0));\\n    }\\n\\n    function logBytes19(bytes19 p0) internal pure {\\n        _sendLogPayload(abi.encodeWithSignature(\\\"log(bytes19)\\\", p0));\\n    }\\n\\n    function logBytes20(bytes20 p0) internal pure {\\n        _sendLogPayload(abi.encodeWithSignature(\\\"log(bytes20)\\\", p0));\\n    }\\n\\n    function logBytes21(bytes21 p0) internal pure {\\n        _sendLogPayload(abi.encodeWithSignature(\\\"log(bytes21)\\\", p0));\\n    }\\n\\n    function logBytes22(bytes22 p0) internal pure {\\n        _sendLogPayload(abi.encodeWithSignature(\\\"log(bytes22)\\\", p0));\\n    }\\n\\n    function logBytes23(bytes23 p0) internal pure {\\n        _sendLogPayload(abi.encodeWithSignature(\\\"log(bytes23)\\\", p0));\\n    }\\n\\n    function logBytes24(bytes24 p0) internal pure {\\n        _sendLogPayload(abi.encodeWithSignature(\\\"log(bytes24)\\\", p0));\\n    }\\n\\n    function logBytes25(bytes25 p0) internal pure {\\n        _sendLogPayload(abi.encodeWithSignature(\\\"log(bytes25)\\\", p0));\\n    }\\n\\n    function logBytes26(bytes26 p0) internal pure {\\n        _sendLogPayload(abi.encodeWithSignature(\\\"log(bytes26)\\\", p0));\\n    }\\n\\n    function logBytes27(bytes27 p0) internal pure {\\n        _sendLogPayload(abi.encodeWithSignature(\\\"log(bytes27)\\\", p0));\\n    }\\n\\n    function logBytes28(bytes28 p0) internal pure {\\n        _sendLogPayload(abi.encodeWithSignature(\\\"log(bytes28)\\\", p0));\\n    }\\n\\n    function logBytes29(bytes29 p0) internal pure {\\n        _sendLogPayload(abi.encodeWithSignature(\\\"log(bytes29)\\\", p0));\\n    }\\n\\n    function logBytes30(bytes30 p0) internal pure {\\n        _sendLogPayload(abi.encodeWithSignature(\\\"log(bytes30)\\\", p0));\\n    }\\n\\n    function logBytes31(bytes31 p0) internal pure {\\n        _sendLogPayload(abi.encodeWithSignature(\\\"log(bytes31)\\\", p0));\\n    }\\n\\n    function logBytes32(bytes32 p0) internal pure {\\n        _sendLogPayload(abi.encodeWithSignature(\\\"log(bytes32)\\\", p0));\\n    }\\n\\n    function log(uint256 p0) internal pure {\\n        _sendLogPayload(abi.encodeWithSignature(\\\"log(uint256)\\\", p0));\\n    }\\n\\n    function log(string memory p0) internal pure {\\n        _sendLogPayload(abi.encodeWithSignature(\\\"log(string)\\\", p0));\\n    }\\n\\n    function log(bool p0) internal pure {\\n        _sendLogPayload(abi.encodeWithSignature(\\\"log(bool)\\\", p0));\\n    }\\n\\n    function log(address p0) internal pure {\\n        _sendLogPayload(abi.encodeWithSignature(\\\"log(address)\\\", p0));\\n    }\\n\\n    function log(uint256 p0, uint256 p1) internal pure {\\n        _sendLogPayload(abi.encodeWithSignature(\\\"log(uint256,uint256)\\\", p0, p1));\\n    }\\n\\n    function log(uint256 p0, string memory p1) internal pure {\\n        _sendLogPayload(abi.encodeWithSignature(\\\"log(uint256,string)\\\", p0, p1));\\n    }\\n\\n    function log(uint256 p0, bool p1) internal pure {\\n        _sendLogPayload(abi.encodeWithSignature(\\\"log(uint256,bool)\\\", p0, p1));\\n    }\\n\\n    function log(uint256 p0, address p1) internal pure {\\n        _sendLogPayload(abi.encodeWithSignature(\\\"log(uint256,address)\\\", p0, p1));\\n    }\\n\\n    function log(string memory p0, uint256 p1) internal pure {\\n        _sendLogPayload(abi.encodeWithSignature(\\\"log(string,uint256)\\\", p0, p1));\\n    }\\n\\n    function log(string memory p0, string memory p1) internal pure {\\n        _sendLogPayload(abi.encodeWithSignature(\\\"log(string,string)\\\", p0, p1));\\n    }\\n\\n    function log(string memory p0, bool p1) internal pure {\\n        _sendLogPayload(abi.encodeWithSignature(\\\"log(string,bool)\\\", p0, p1));\\n    }\\n\\n    function log(string memory p0, address p1) internal pure {\\n        _sendLogPayload(abi.encodeWithSignature(\\\"log(string,address)\\\", p0, p1));\\n    }\\n\\n    function log(bool p0, uint256 p1) internal pure {\\n        _sendLogPayload(abi.encodeWithSignature(\\\"log(bool,uint256)\\\", p0, p1));\\n    }\\n\\n    function log(bool p0, string memory p1) internal pure {\\n        _sendLogPayload(abi.encodeWithSignature(\\\"log(bool,string)\\\", p0, p1));\\n    }\\n\\n    function log(bool p0, bool p1) internal pure {\\n        _sendLogPayload(abi.encodeWithSignature(\\\"log(bool,bool)\\\", p0, p1));\\n    }\\n\\n    function log(bool p0, address p1) internal pure {\\n        _sendLogPayload(abi.encodeWithSignature(\\\"log(bool,address)\\\", p0, p1));\\n    }\\n\\n    function log(address p0, uint256 p1) internal pure {\\n        _sendLogPayload(abi.encodeWithSignature(\\\"log(address,uint256)\\\", p0, p1));\\n    }\\n\\n    function log(address p0, string memory p1) internal pure {\\n        _sendLogPayload(abi.encodeWithSignature(\\\"log(address,string)\\\", p0, p1));\\n    }\\n\\n    function log(address p0, bool p1) internal pure {\\n        _sendLogPayload(abi.encodeWithSignature(\\\"log(address,bool)\\\", p0, p1));\\n    }\\n\\n    function log(address p0, address p1) internal pure {\\n        _sendLogPayload(abi.encodeWithSignature(\\\"log(address,address)\\\", p0, p1));\\n    }\\n\\n    function log(uint256 p0, uint256 p1, uint256 p2) internal pure {\\n        _sendLogPayload(abi.encodeWithSignature(\\\"log(uint256,uint256,uint256)\\\", p0, p1, p2));\\n    }\\n\\n    function log(uint256 p0, uint256 p1, string memory p2) internal pure {\\n        _sendLogPayload(abi.encodeWithSignature(\\\"log(uint256,uint256,string)\\\", p0, p1, p2));\\n    }\\n\\n    function log(uint256 p0, uint256 p1, bool p2) internal pure {\\n        _sendLogPayload(abi.encodeWithSignature(\\\"log(uint256,uint256,bool)\\\", p0, p1, p2));\\n    }\\n\\n    function log(uint256 p0, uint256 p1, address p2) internal pure {\\n        _sendLogPayload(abi.encodeWithSignature(\\\"log(uint256,uint256,address)\\\", p0, p1, p2));\\n    }\\n\\n    function log(uint256 p0, string memory p1, uint256 p2) internal pure {\\n        _sendLogPayload(abi.encodeWithSignature(\\\"log(uint256,string,uint256)\\\", p0, p1, p2));\\n    }\\n\\n    function log(uint256 p0, string memory p1, string memory p2) internal pure {\\n        _sendLogPayload(abi.encodeWithSignature(\\\"log(uint256,string,string)\\\", p0, p1, p2));\\n    }\\n\\n    function log(uint256 p0, string memory p1, bool p2) internal pure {\\n        _sendLogPayload(abi.encodeWithSignature(\\\"log(uint256,string,bool)\\\", p0, p1, p2));\\n    }\\n\\n    function log(uint256 p0, string memory p1, address p2) internal pure {\\n        _sendLogPayload(abi.encodeWithSignature(\\\"log(uint256,string,address)\\\", p0, p1, p2));\\n    }\\n\\n    function log(uint256 p0, bool p1, uint256 p2) internal pure {\\n        _sendLogPayload(abi.encodeWithSignature(\\\"log(uint256,bool,uint256)\\\", p0, p1, p2));\\n    }\\n\\n    function log(uint256 p0, bool p1, string memory p2) internal pure {\\n        _sendLogPayload(abi.encodeWithSignature(\\\"log(uint256,bool,string)\\\", p0, p1, p2));\\n    }\\n\\n    function log(uint256 p0, bool p1, bool p2) internal pure {\\n        _sendLogPayload(abi.encodeWithSignature(\\\"log(uint256,bool,bool)\\\", p0, p1, p2));\\n    }\\n\\n    function log(uint256 p0, bool p1, address p2) internal pure {\\n        _sendLogPayload(abi.encodeWithSignature(\\\"log(uint256,bool,address)\\\", p0, p1, p2));\\n    }\\n\\n    function log(uint256 p0, address p1, uint256 p2) internal pure {\\n        _sendLogPayload(abi.encodeWithSignature(\\\"log(uint256,address,uint256)\\\", p0, p1, p2));\\n    }\\n\\n    function log(uint256 p0, address p1, string memory p2) internal pure {\\n        _sendLogPayload(abi.encodeWithSignature(\\\"log(uint256,address,string)\\\", p0, p1, p2));\\n    }\\n\\n    function log(uint256 p0, address p1, bool p2) internal pure {\\n        _sendLogPayload(abi.encodeWithSignature(\\\"log(uint256,address,bool)\\\", p0, p1, p2));\\n    }\\n\\n    function log(uint256 p0, address p1, address p2) internal pure {\\n        _sendLogPayload(abi.encodeWithSignature(\\\"log(uint256,address,address)\\\", p0, p1, p2));\\n    }\\n\\n    function log(string memory p0, uint256 p1, uint256 p2) internal pure {\\n        _sendLogPayload(abi.encodeWithSignature(\\\"log(string,uint256,uint256)\\\", p0, p1, p2));\\n    }\\n\\n    function log(string memory p0, uint256 p1, string memory p2) internal pure {\\n        _sendLogPayload(abi.encodeWithSignature(\\\"log(string,uint256,string)\\\", p0, p1, p2));\\n    }\\n\\n    function log(string memory p0, uint256 p1, bool p2) internal pure {\\n        _sendLogPayload(abi.encodeWithSignature(\\\"log(string,uint256,bool)\\\", p0, p1, p2));\\n    }\\n\\n    function log(string memory p0, uint256 p1, address p2) internal pure {\\n        _sendLogPayload(abi.encodeWithSignature(\\\"log(string,uint256,address)\\\", p0, p1, p2));\\n    }\\n\\n    function log(string memory p0, string memory p1, uint256 p2) internal pure {\\n        _sendLogPayload(abi.encodeWithSignature(\\\"log(string,string,uint256)\\\", p0, p1, p2));\\n    }\\n\\n    function log(string memory p0, string memory p1, string memory p2) internal pure {\\n        _sendLogPayload(abi.encodeWithSignature(\\\"log(string,string,string)\\\", p0, p1, p2));\\n    }\\n\\n    function log(string memory p0, string memory p1, bool p2) internal pure {\\n        _sendLogPayload(abi.encodeWithSignature(\\\"log(string,string,bool)\\\", p0, p1, p2));\\n    }\\n\\n    function log(string memory p0, string memory p1, address p2) internal pure {\\n        _sendLogPayload(abi.encodeWithSignature(\\\"log(string,string,address)\\\", p0, p1, p2));\\n    }\\n\\n    function log(string memory p0, bool p1, uint256 p2) internal pure {\\n        _sendLogPayload(abi.encodeWithSignature(\\\"log(string,bool,uint256)\\\", p0, p1, p2));\\n    }\\n\\n    function log(string memory p0, bool p1, string memory p2) internal pure {\\n        _sendLogPayload(abi.encodeWithSignature(\\\"log(string,bool,string)\\\", p0, p1, p2));\\n    }\\n\\n    function log(string memory p0, bool p1, bool p2) internal pure {\\n        _sendLogPayload(abi.encodeWithSignature(\\\"log(string,bool,bool)\\\", p0, p1, p2));\\n    }\\n\\n    function log(string memory p0, bool p1, address p2) internal pure {\\n        _sendLogPayload(abi.encodeWithSignature(\\\"log(string,bool,address)\\\", p0, p1, p2));\\n    }\\n\\n    function log(string memory p0, address p1, uint256 p2) internal pure {\\n        _sendLogPayload(abi.encodeWithSignature(\\\"log(string,address,uint256)\\\", p0, p1, p2));\\n    }\\n\\n    function log(string memory p0, address p1, string memory p2) internal pure {\\n        _sendLogPayload(abi.encodeWithSignature(\\\"log(string,address,string)\\\", p0, p1, p2));\\n    }\\n\\n    function log(string memory p0, address p1, bool p2) internal pure {\\n        _sendLogPayload(abi.encodeWithSignature(\\\"log(string,address,bool)\\\", p0, p1, p2));\\n    }\\n\\n    function log(string memory p0, address p1, address p2) internal pure {\\n        _sendLogPayload(abi.encodeWithSignature(\\\"log(string,address,address)\\\", p0, p1, p2));\\n    }\\n\\n    function log(bool p0, uint256 p1, uint256 p2) internal pure {\\n        _sendLogPayload(abi.encodeWithSignature(\\\"log(bool,uint256,uint256)\\\", p0, p1, p2));\\n    }\\n\\n    function log(bool p0, uint256 p1, string memory p2) internal pure {\\n        _sendLogPayload(abi.encodeWithSignature(\\\"log(bool,uint256,string)\\\", p0, p1, p2));\\n    }\\n\\n    function log(bool p0, uint256 p1, bool p2) internal pure {\\n        _sendLogPayload(abi.encodeWithSignature(\\\"log(bool,uint256,bool)\\\", p0, p1, p2));\\n    }\\n\\n    function log(bool p0, uint256 p1, address p2) internal pure {\\n        _sendLogPayload(abi.encodeWithSignature(\\\"log(bool,uint256,address)\\\", p0, p1, p2));\\n    }\\n\\n    function log(bool p0, string memory p1, uint256 p2) internal pure {\\n        _sendLogPayload(abi.encodeWithSignature(\\\"log(bool,string,uint256)\\\", p0, p1, p2));\\n    }\\n\\n    function log(bool p0, string memory p1, string memory p2) internal pure {\\n        _sendLogPayload(abi.encodeWithSignature(\\\"log(bool,string,string)\\\", p0, p1, p2));\\n    }\\n\\n    function log(bool p0, string memory p1, bool p2) internal pure {\\n        _sendLogPayload(abi.encodeWithSignature(\\\"log(bool,string,bool)\\\", p0, p1, p2));\\n    }\\n\\n    function log(bool p0, string memory p1, address p2) internal pure {\\n        _sendLogPayload(abi.encodeWithSignature(\\\"log(bool,string,address)\\\", p0, p1, p2));\\n    }\\n\\n    function log(bool p0, bool p1, uint256 p2) internal pure {\\n        _sendLogPayload(abi.encodeWithSignature(\\\"log(bool,bool,uint256)\\\", p0, p1, p2));\\n    }\\n\\n    function log(bool p0, bool p1, string memory p2) internal pure {\\n        _sendLogPayload(abi.encodeWithSignature(\\\"log(bool,bool,string)\\\", p0, p1, p2));\\n    }\\n\\n    function log(bool p0, bool p1, bool p2) internal pure {\\n        _sendLogPayload(abi.encodeWithSignature(\\\"log(bool,bool,bool)\\\", p0, p1, p2));\\n    }\\n\\n    function log(bool p0, bool p1, address p2) internal pure {\\n        _sendLogPayload(abi.encodeWithSignature(\\\"log(bool,bool,address)\\\", p0, p1, p2));\\n    }\\n\\n    function log(bool p0, address p1, uint256 p2) internal pure {\\n        _sendLogPayload(abi.encodeWithSignature(\\\"log(bool,address,uint256)\\\", p0, p1, p2));\\n    }\\n\\n    function log(bool p0, address p1, string memory p2) internal pure {\\n        _sendLogPayload(abi.encodeWithSignature(\\\"log(bool,address,string)\\\", p0, p1, p2));\\n    }\\n\\n    function log(bool p0, address p1, bool p2) internal pure {\\n        _sendLogPayload(abi.encodeWithSignature(\\\"log(bool,address,bool)\\\", p0, p1, p2));\\n    }\\n\\n    function log(bool p0, address p1, address p2) internal pure {\\n        _sendLogPayload(abi.encodeWithSignature(\\\"log(bool,address,address)\\\", p0, p1, p2));\\n    }\\n\\n    function log(address p0, uint256 p1, uint256 p2) internal pure {\\n        _sendLogPayload(abi.encodeWithSignature(\\\"log(address,uint256,uint256)\\\", p0, p1, p2));\\n    }\\n\\n    function log(address p0, uint256 p1, string memory p2) internal pure {\\n        _sendLogPayload(abi.encodeWithSignature(\\\"log(address,uint256,string)\\\", p0, p1, p2));\\n    }\\n\\n    function log(address p0, uint256 p1, bool p2) internal pure {\\n        _sendLogPayload(abi.encodeWithSignature(\\\"log(address,uint256,bool)\\\", p0, p1, p2));\\n    }\\n\\n    function log(address p0, uint256 p1, address p2) internal pure {\\n        _sendLogPayload(abi.encodeWithSignature(\\\"log(address,uint256,address)\\\", p0, p1, p2));\\n    }\\n\\n    function log(address p0, string memory p1, uint256 p2) internal pure {\\n        _sendLogPayload(abi.encodeWithSignature(\\\"log(address,string,uint256)\\\", p0, p1, p2));\\n    }\\n\\n    function log(address p0, string memory p1, string memory p2) internal pure {\\n        _sendLogPayload(abi.encodeWithSignature(\\\"log(address,string,string)\\\", p0, p1, p2));\\n    }\\n\\n    function log(address p0, string memory p1, bool p2) internal pure {\\n        _sendLogPayload(abi.encodeWithSignature(\\\"log(address,string,bool)\\\", p0, p1, p2));\\n    }\\n\\n    function log(address p0, string memory p1, address p2) internal pure {\\n        _sendLogPayload(abi.encodeWithSignature(\\\"log(address,string,address)\\\", p0, p1, p2));\\n    }\\n\\n    function log(address p0, bool p1, uint256 p2) internal pure {\\n        _sendLogPayload(abi.encodeWithSignature(\\\"log(address,bool,uint256)\\\", p0, p1, p2));\\n    }\\n\\n    function log(address p0, bool p1, string memory p2) internal pure {\\n        _sendLogPayload(abi.encodeWithSignature(\\\"log(address,bool,string)\\\", p0, p1, p2));\\n    }\\n\\n    function log(address p0, bool p1, bool p2) internal pure {\\n        _sendLogPayload(abi.encodeWithSignature(\\\"log(address,bool,bool)\\\", p0, p1, p2));\\n    }\\n\\n    function log(address p0, bool p1, address p2) internal pure {\\n        _sendLogPayload(abi.encodeWithSignature(\\\"log(address,bool,address)\\\", p0, p1, p2));\\n    }\\n\\n    function log(address p0, address p1, uint256 p2) internal pure {\\n        _sendLogPayload(abi.encodeWithSignature(\\\"log(address,address,uint256)\\\", p0, p1, p2));\\n    }\\n\\n    function log(address p0, address p1, string memory p2) internal pure {\\n        _sendLogPayload(abi.encodeWithSignature(\\\"log(address,address,string)\\\", p0, p1, p2));\\n    }\\n\\n    function log(address p0, address p1, bool p2) internal pure {\\n        _sendLogPayload(abi.encodeWithSignature(\\\"log(address,address,bool)\\\", p0, p1, p2));\\n    }\\n\\n    function log(address p0, address p1, address p2) internal pure {\\n        _sendLogPayload(abi.encodeWithSignature(\\\"log(address,address,address)\\\", p0, p1, p2));\\n    }\\n\\n    function log(uint256 p0, uint256 p1, uint256 p2, uint256 p3) internal pure {\\n        _sendLogPayload(abi.encodeWithSignature(\\\"log(uint256,uint256,uint256,uint256)\\\", p0, p1, p2, p3));\\n    }\\n\\n    function log(uint256 p0, uint256 p1, uint256 p2, string memory p3) internal pure {\\n        _sendLogPayload(abi.encodeWithSignature(\\\"log(uint256,uint256,uint256,string)\\\", p0, p1, p2, p3));\\n    }\\n\\n    function log(uint256 p0, uint256 p1, uint256 p2, bool p3) internal pure {\\n        _sendLogPayload(abi.encodeWithSignature(\\\"log(uint256,uint256,uint256,bool)\\\", p0, p1, p2, p3));\\n    }\\n\\n    function log(uint256 p0, uint256 p1, uint256 p2, address p3) internal pure {\\n        _sendLogPayload(abi.encodeWithSignature(\\\"log(uint256,uint256,uint256,address)\\\", p0, p1, p2, p3));\\n    }\\n\\n    function log(uint256 p0, uint256 p1, string memory p2, uint256 p3) internal pure {\\n        _sendLogPayload(abi.encodeWithSignature(\\\"log(uint256,uint256,string,uint256)\\\", p0, p1, p2, p3));\\n    }\\n\\n    function log(uint256 p0, uint256 p1, string memory p2, string memory p3) internal pure {\\n        _sendLogPayload(abi.encodeWithSignature(\\\"log(uint256,uint256,string,string)\\\", p0, p1, p2, p3));\\n    }\\n\\n    function log(uint256 p0, uint256 p1, string memory p2, bool p3) internal pure {\\n        _sendLogPayload(abi.encodeWithSignature(\\\"log(uint256,uint256,string,bool)\\\", p0, p1, p2, p3));\\n    }\\n\\n    function log(uint256 p0, uint256 p1, string memory p2, address p3) internal pure {\\n        _sendLogPayload(abi.encodeWithSignature(\\\"log(uint256,uint256,string,address)\\\", p0, p1, p2, p3));\\n    }\\n\\n    function log(uint256 p0, uint256 p1, bool p2, uint256 p3) internal pure {\\n        _sendLogPayload(abi.encodeWithSignature(\\\"log(uint256,uint256,bool,uint256)\\\", p0, p1, p2, p3));\\n    }\\n\\n    function log(uint256 p0, uint256 p1, bool p2, string memory p3) internal pure {\\n        _sendLogPayload(abi.encodeWithSignature(\\\"log(uint256,uint256,bool,string)\\\", p0, p1, p2, p3));\\n    }\\n\\n    function log(uint256 p0, uint256 p1, bool p2, bool p3) internal pure {\\n        _sendLogPayload(abi.encodeWithSignature(\\\"log(uint256,uint256,bool,bool)\\\", p0, p1, p2, p3));\\n    }\\n\\n    function log(uint256 p0, uint256 p1, bool p2, address p3) internal pure {\\n        _sendLogPayload(abi.encodeWithSignature(\\\"log(uint256,uint256,bool,address)\\\", p0, p1, p2, p3));\\n    }\\n\\n    function log(uint256 p0, uint256 p1, address p2, uint256 p3) internal pure {\\n        _sendLogPayload(abi.encodeWithSignature(\\\"log(uint256,uint256,address,uint256)\\\", p0, p1, p2, p3));\\n    }\\n\\n    function log(uint256 p0, uint256 p1, address p2, string memory p3) internal pure {\\n        _sendLogPayload(abi.encodeWithSignature(\\\"log(uint256,uint256,address,string)\\\", p0, p1, p2, p3));\\n    }\\n\\n    function log(uint256 p0, uint256 p1, address p2, bool p3) internal pure {\\n        _sendLogPayload(abi.encodeWithSignature(\\\"log(uint256,uint256,address,bool)\\\", p0, p1, p2, p3));\\n    }\\n\\n    function log(uint256 p0, uint256 p1, address p2, address p3) internal pure {\\n        _sendLogPayload(abi.encodeWithSignature(\\\"log(uint256,uint256,address,address)\\\", p0, p1, p2, p3));\\n    }\\n\\n    function log(uint256 p0, string memory p1, uint256 p2, uint256 p3) internal pure {\\n        _sendLogPayload(abi.encodeWithSignature(\\\"log(uint256,string,uint256,uint256)\\\", p0, p1, p2, p3));\\n    }\\n\\n    function log(uint256 p0, string memory p1, uint256 p2, string memory p3) internal pure {\\n        _sendLogPayload(abi.encodeWithSignature(\\\"log(uint256,string,uint256,string)\\\", p0, p1, p2, p3));\\n    }\\n\\n    function log(uint256 p0, string memory p1, uint256 p2, bool p3) internal pure {\\n        _sendLogPayload(abi.encodeWithSignature(\\\"log(uint256,string,uint256,bool)\\\", p0, p1, p2, p3));\\n    }\\n\\n    function log(uint256 p0, string memory p1, uint256 p2, address p3) internal pure {\\n        _sendLogPayload(abi.encodeWithSignature(\\\"log(uint256,string,uint256,address)\\\", p0, p1, p2, p3));\\n    }\\n\\n    function log(uint256 p0, string memory p1, string memory p2, uint256 p3) internal pure {\\n        _sendLogPayload(abi.encodeWithSignature(\\\"log(uint256,string,string,uint256)\\\", p0, p1, p2, p3));\\n    }\\n\\n    function log(uint256 p0, string memory p1, string memory p2, string memory p3) internal pure {\\n        _sendLogPayload(abi.encodeWithSignature(\\\"log(uint256,string,string,string)\\\", p0, p1, p2, p3));\\n    }\\n\\n    function log(uint256 p0, string memory p1, string memory p2, bool p3) internal pure {\\n        _sendLogPayload(abi.encodeWithSignature(\\\"log(uint256,string,string,bool)\\\", p0, p1, p2, p3));\\n    }\\n\\n    function log(uint256 p0, string memory p1, string memory p2, address p3) internal pure {\\n        _sendLogPayload(abi.encodeWithSignature(\\\"log(uint256,string,string,address)\\\", p0, p1, p2, p3));\\n    }\\n\\n    function log(uint256 p0, string memory p1, bool p2, uint256 p3) internal pure {\\n        _sendLogPayload(abi.encodeWithSignature(\\\"log(uint256,string,bool,uint256)\\\", p0, p1, p2, p3));\\n    }\\n\\n    function log(uint256 p0, string memory p1, bool p2, string memory p3) internal pure {\\n        _sendLogPayload(abi.encodeWithSignature(\\\"log(uint256,string,bool,string)\\\", p0, p1, p2, p3));\\n    }\\n\\n    function log(uint256 p0, string memory p1, bool p2, bool p3) internal pure {\\n        _sendLogPayload(abi.encodeWithSignature(\\\"log(uint256,string,bool,bool)\\\", p0, p1, p2, p3));\\n    }\\n\\n    function log(uint256 p0, string memory p1, bool p2, address p3) internal pure {\\n        _sendLogPayload(abi.encodeWithSignature(\\\"log(uint256,string,bool,address)\\\", p0, p1, p2, p3));\\n    }\\n\\n    function log(uint256 p0, string memory p1, address p2, uint256 p3) internal pure {\\n        _sendLogPayload(abi.encodeWithSignature(\\\"log(uint256,string,address,uint256)\\\", p0, p1, p2, p3));\\n    }\\n\\n    function log(uint256 p0, string memory p1, address p2, string memory p3) internal pure {\\n        _sendLogPayload(abi.encodeWithSignature(\\\"log(uint256,string,address,string)\\\", p0, p1, p2, p3));\\n    }\\n\\n    function log(uint256 p0, string memory p1, address p2, bool p3) internal pure {\\n        _sendLogPayload(abi.encodeWithSignature(\\\"log(uint256,string,address,bool)\\\", p0, p1, p2, p3));\\n    }\\n\\n    function log(uint256 p0, string memory p1, address p2, address p3) internal pure {\\n        _sendLogPayload(abi.encodeWithSignature(\\\"log(uint256,string,address,address)\\\", p0, p1, p2, p3));\\n    }\\n\\n    function log(uint256 p0, bool p1, uint256 p2, uint256 p3) internal pure {\\n        _sendLogPayload(abi.encodeWithSignature(\\\"log(uint256,bool,uint256,uint256)\\\", p0, p1, p2, p3));\\n    }\\n\\n    function log(uint256 p0, bool p1, uint256 p2, string memory p3) internal pure {\\n        _sendLogPayload(abi.encodeWithSignature(\\\"log(uint256,bool,uint256,string)\\\", p0, p1, p2, p3));\\n    }\\n\\n    function log(uint256 p0, bool p1, uint256 p2, bool p3) internal pure {\\n        _sendLogPayload(abi.encodeWithSignature(\\\"log(uint256,bool,uint256,bool)\\\", p0, p1, p2, p3));\\n    }\\n\\n    function log(uint256 p0, bool p1, uint256 p2, address p3) internal pure {\\n        _sendLogPayload(abi.encodeWithSignature(\\\"log(uint256,bool,uint256,address)\\\", p0, p1, p2, p3));\\n    }\\n\\n    function log(uint256 p0, bool p1, string memory p2, uint256 p3) internal pure {\\n        _sendLogPayload(abi.encodeWithSignature(\\\"log(uint256,bool,string,uint256)\\\", p0, p1, p2, p3));\\n    }\\n\\n    function log(uint256 p0, bool p1, string memory p2, string memory p3) internal pure {\\n        _sendLogPayload(abi.encodeWithSignature(\\\"log(uint256,bool,string,string)\\\", p0, p1, p2, p3));\\n    }\\n\\n    function log(uint256 p0, bool p1, string memory p2, bool p3) internal pure {\\n        _sendLogPayload(abi.encodeWithSignature(\\\"log(uint256,bool,string,bool)\\\", p0, p1, p2, p3));\\n    }\\n\\n    function log(uint256 p0, bool p1, string memory p2, address p3) internal pure {\\n        _sendLogPayload(abi.encodeWithSignature(\\\"log(uint256,bool,string,address)\\\", p0, p1, p2, p3));\\n    }\\n\\n    function log(uint256 p0, bool p1, bool p2, uint256 p3) internal pure {\\n        _sendLogPayload(abi.encodeWithSignature(\\\"log(uint256,bool,bool,uint256)\\\", p0, p1, p2, p3));\\n    }\\n\\n    function log(uint256 p0, bool p1, bool p2, string memory p3) internal pure {\\n        _sendLogPayload(abi.encodeWithSignature(\\\"log(uint256,bool,bool,string)\\\", p0, p1, p2, p3));\\n    }\\n\\n    function log(uint256 p0, bool p1, bool p2, bool p3) internal pure {\\n        _sendLogPayload(abi.encodeWithSignature(\\\"log(uint256,bool,bool,bool)\\\", p0, p1, p2, p3));\\n    }\\n\\n    function log(uint256 p0, bool p1, bool p2, address p3) internal pure {\\n        _sendLogPayload(abi.encodeWithSignature(\\\"log(uint256,bool,bool,address)\\\", p0, p1, p2, p3));\\n    }\\n\\n    function log(uint256 p0, bool p1, address p2, uint256 p3) internal pure {\\n        _sendLogPayload(abi.encodeWithSignature(\\\"log(uint256,bool,address,uint256)\\\", p0, p1, p2, p3));\\n    }\\n\\n    function log(uint256 p0, bool p1, address p2, string memory p3) internal pure {\\n        _sendLogPayload(abi.encodeWithSignature(\\\"log(uint256,bool,address,string)\\\", p0, p1, p2, p3));\\n    }\\n\\n    function log(uint256 p0, bool p1, address p2, bool p3) internal pure {\\n        _sendLogPayload(abi.encodeWithSignature(\\\"log(uint256,bool,address,bool)\\\", p0, p1, p2, p3));\\n    }\\n\\n    function log(uint256 p0, bool p1, address p2, address p3) internal pure {\\n        _sendLogPayload(abi.encodeWithSignature(\\\"log(uint256,bool,address,address)\\\", p0, p1, p2, p3));\\n    }\\n\\n    function log(uint256 p0, address p1, uint256 p2, uint256 p3) internal pure {\\n        _sendLogPayload(abi.encodeWithSignature(\\\"log(uint256,address,uint256,uint256)\\\", p0, p1, p2, p3));\\n    }\\n\\n    function log(uint256 p0, address p1, uint256 p2, string memory p3) internal pure {\\n        _sendLogPayload(abi.encodeWithSignature(\\\"log(uint256,address,uint256,string)\\\", p0, p1, p2, p3));\\n    }\\n\\n    function log(uint256 p0, address p1, uint256 p2, bool p3) internal pure {\\n        _sendLogPayload(abi.encodeWithSignature(\\\"log(uint256,address,uint256,bool)\\\", p0, p1, p2, p3));\\n    }\\n\\n    function log(uint256 p0, address p1, uint256 p2, address p3) internal pure {\\n        _sendLogPayload(abi.encodeWithSignature(\\\"log(uint256,address,uint256,address)\\\", p0, p1, p2, p3));\\n    }\\n\\n    function log(uint256 p0, address p1, string memory p2, uint256 p3) internal pure {\\n        _sendLogPayload(abi.encodeWithSignature(\\\"log(uint256,address,string,uint256)\\\", p0, p1, p2, p3));\\n    }\\n\\n    function log(uint256 p0, address p1, string memory p2, string memory p3) internal pure {\\n        _sendLogPayload(abi.encodeWithSignature(\\\"log(uint256,address,string,string)\\\", p0, p1, p2, p3));\\n    }\\n\\n    function log(uint256 p0, address p1, string memory p2, bool p3) internal pure {\\n        _sendLogPayload(abi.encodeWithSignature(\\\"log(uint256,address,string,bool)\\\", p0, p1, p2, p3));\\n    }\\n\\n    function log(uint256 p0, address p1, string memory p2, address p3) internal pure {\\n        _sendLogPayload(abi.encodeWithSignature(\\\"log(uint256,address,string,address)\\\", p0, p1, p2, p3));\\n    }\\n\\n    function log(uint256 p0, address p1, bool p2, uint256 p3) internal pure {\\n        _sendLogPayload(abi.encodeWithSignature(\\\"log(uint256,address,bool,uint256)\\\", p0, p1, p2, p3));\\n    }\\n\\n    function log(uint256 p0, address p1, bool p2, string memory p3) internal pure {\\n        _sendLogPayload(abi.encodeWithSignature(\\\"log(uint256,address,bool,string)\\\", p0, p1, p2, p3));\\n    }\\n\\n    function log(uint256 p0, address p1, bool p2, bool p3) internal pure {\\n        _sendLogPayload(abi.encodeWithSignature(\\\"log(uint256,address,bool,bool)\\\", p0, p1, p2, p3));\\n    }\\n\\n    function log(uint256 p0, address p1, bool p2, address p3) internal pure {\\n        _sendLogPayload(abi.encodeWithSignature(\\\"log(uint256,address,bool,address)\\\", p0, p1, p2, p3));\\n    }\\n\\n    function log(uint256 p0, address p1, address p2, uint256 p3) internal pure {\\n        _sendLogPayload(abi.encodeWithSignature(\\\"log(uint256,address,address,uint256)\\\", p0, p1, p2, p3));\\n    }\\n\\n    function log(uint256 p0, address p1, address p2, string memory p3) internal pure {\\n        _sendLogPayload(abi.encodeWithSignature(\\\"log(uint256,address,address,string)\\\", p0, p1, p2, p3));\\n    }\\n\\n    function log(uint256 p0, address p1, address p2, bool p3) internal pure {\\n        _sendLogPayload(abi.encodeWithSignature(\\\"log(uint256,address,address,bool)\\\", p0, p1, p2, p3));\\n    }\\n\\n    function log(uint256 p0, address p1, address p2, address p3) internal pure {\\n        _sendLogPayload(abi.encodeWithSignature(\\\"log(uint256,address,address,address)\\\", p0, p1, p2, p3));\\n    }\\n\\n    function log(string memory p0, uint256 p1, uint256 p2, uint256 p3) internal pure {\\n        _sendLogPayload(abi.encodeWithSignature(\\\"log(string,uint256,uint256,uint256)\\\", p0, p1, p2, p3));\\n    }\\n\\n    function log(string memory p0, uint256 p1, uint256 p2, string memory p3) internal pure {\\n        _sendLogPayload(abi.encodeWithSignature(\\\"log(string,uint256,uint256,string)\\\", p0, p1, p2, p3));\\n    }\\n\\n    function log(string memory p0, uint256 p1, uint256 p2, bool p3) internal pure {\\n        _sendLogPayload(abi.encodeWithSignature(\\\"log(string,uint256,uint256,bool)\\\", p0, p1, p2, p3));\\n    }\\n\\n    function log(string memory p0, uint256 p1, uint256 p2, address p3) internal pure {\\n        _sendLogPayload(abi.encodeWithSignature(\\\"log(string,uint256,uint256,address)\\\", p0, p1, p2, p3));\\n    }\\n\\n    function log(string memory p0, uint256 p1, string memory p2, uint256 p3) internal pure {\\n        _sendLogPayload(abi.encodeWithSignature(\\\"log(string,uint256,string,uint256)\\\", p0, p1, p2, p3));\\n    }\\n\\n    function log(string memory p0, uint256 p1, string memory p2, string memory p3) internal pure {\\n        _sendLogPayload(abi.encodeWithSignature(\\\"log(string,uint256,string,string)\\\", p0, p1, p2, p3));\\n    }\\n\\n    function log(string memory p0, uint256 p1, string memory p2, bool p3) internal pure {\\n        _sendLogPayload(abi.encodeWithSignature(\\\"log(string,uint256,string,bool)\\\", p0, p1, p2, p3));\\n    }\\n\\n    function log(string memory p0, uint256 p1, string memory p2, address p3) internal pure {\\n        _sendLogPayload(abi.encodeWithSignature(\\\"log(string,uint256,string,address)\\\", p0, p1, p2, p3));\\n    }\\n\\n    function log(string memory p0, uint256 p1, bool p2, uint256 p3) internal pure {\\n        _sendLogPayload(abi.encodeWithSignature(\\\"log(string,uint256,bool,uint256)\\\", p0, p1, p2, p3));\\n    }\\n\\n    function log(string memory p0, uint256 p1, bool p2, string memory p3) internal pure {\\n        _sendLogPayload(abi.encodeWithSignature(\\\"log(string,uint256,bool,string)\\\", p0, p1, p2, p3));\\n    }\\n\\n    function log(string memory p0, uint256 p1, bool p2, bool p3) internal pure {\\n        _sendLogPayload(abi.encodeWithSignature(\\\"log(string,uint256,bool,bool)\\\", p0, p1, p2, p3));\\n    }\\n\\n    function log(string memory p0, uint256 p1, bool p2, address p3) internal pure {\\n        _sendLogPayload(abi.encodeWithSignature(\\\"log(string,uint256,bool,address)\\\", p0, p1, p2, p3));\\n    }\\n\\n    function log(string memory p0, uint256 p1, address p2, uint256 p3) internal pure {\\n        _sendLogPayload(abi.encodeWithSignature(\\\"log(string,uint256,address,uint256)\\\", p0, p1, p2, p3));\\n    }\\n\\n    function log(string memory p0, uint256 p1, address p2, string memory p3) internal pure {\\n        _sendLogPayload(abi.encodeWithSignature(\\\"log(string,uint256,address,string)\\\", p0, p1, p2, p3));\\n    }\\n\\n    function log(string memory p0, uint256 p1, address p2, bool p3) internal pure {\\n        _sendLogPayload(abi.encodeWithSignature(\\\"log(string,uint256,address,bool)\\\", p0, p1, p2, p3));\\n    }\\n\\n    function log(string memory p0, uint256 p1, address p2, address p3) internal pure {\\n        _sendLogPayload(abi.encodeWithSignature(\\\"log(string,uint256,address,address)\\\", p0, p1, p2, p3));\\n    }\\n\\n    function log(string memory p0, string memory p1, uint256 p2, uint256 p3) internal pure {\\n        _sendLogPayload(abi.encodeWithSignature(\\\"log(string,string,uint256,uint256)\\\", p0, p1, p2, p3));\\n    }\\n\\n    function log(string memory p0, string memory p1, uint256 p2, string memory p3) internal pure {\\n        _sendLogPayload(abi.encodeWithSignature(\\\"log(string,string,uint256,string)\\\", p0, p1, p2, p3));\\n    }\\n\\n    function log(string memory p0, string memory p1, uint256 p2, bool p3) internal pure {\\n        _sendLogPayload(abi.encodeWithSignature(\\\"log(string,string,uint256,bool)\\\", p0, p1, p2, p3));\\n    }\\n\\n    function log(string memory p0, string memory p1, uint256 p2, address p3) internal pure {\\n        _sendLogPayload(abi.encodeWithSignature(\\\"log(string,string,uint256,address)\\\", p0, p1, p2, p3));\\n    }\\n\\n    function log(string memory p0, string memory p1, string memory p2, uint256 p3) internal pure {\\n        _sendLogPayload(abi.encodeWithSignature(\\\"log(string,string,string,uint256)\\\", p0, p1, p2, p3));\\n    }\\n\\n    function log(string memory p0, string memory p1, string memory p2, string memory p3) internal pure {\\n        _sendLogPayload(abi.encodeWithSignature(\\\"log(string,string,string,string)\\\", p0, p1, p2, p3));\\n    }\\n\\n    function log(string memory p0, string memory p1, string memory p2, bool p3) internal pure {\\n        _sendLogPayload(abi.encodeWithSignature(\\\"log(string,string,string,bool)\\\", p0, p1, p2, p3));\\n    }\\n\\n    function log(string memory p0, string memory p1, string memory p2, address p3) internal pure {\\n        _sendLogPayload(abi.encodeWithSignature(\\\"log(string,string,string,address)\\\", p0, p1, p2, p3));\\n    }\\n\\n    function log(string memory p0, string memory p1, bool p2, uint256 p3) internal pure {\\n        _sendLogPayload(abi.encodeWithSignature(\\\"log(string,string,bool,uint256)\\\", p0, p1, p2, p3));\\n    }\\n\\n    function log(string memory p0, string memory p1, bool p2, string memory p3) internal pure {\\n        _sendLogPayload(abi.encodeWithSignature(\\\"log(string,string,bool,string)\\\", p0, p1, p2, p3));\\n    }\\n\\n    function log(string memory p0, string memory p1, bool p2, bool p3) internal pure {\\n        _sendLogPayload(abi.encodeWithSignature(\\\"log(string,string,bool,bool)\\\", p0, p1, p2, p3));\\n    }\\n\\n    function log(string memory p0, string memory p1, bool p2, address p3) internal pure {\\n        _sendLogPayload(abi.encodeWithSignature(\\\"log(string,string,bool,address)\\\", p0, p1, p2, p3));\\n    }\\n\\n    function log(string memory p0, string memory p1, address p2, uint256 p3) internal pure {\\n        _sendLogPayload(abi.encodeWithSignature(\\\"log(string,string,address,uint256)\\\", p0, p1, p2, p3));\\n    }\\n\\n    function log(string memory p0, string memory p1, address p2, string memory p3) internal pure {\\n        _sendLogPayload(abi.encodeWithSignature(\\\"log(string,string,address,string)\\\", p0, p1, p2, p3));\\n    }\\n\\n    function log(string memory p0, string memory p1, address p2, bool p3) internal pure {\\n        _sendLogPayload(abi.encodeWithSignature(\\\"log(string,string,address,bool)\\\", p0, p1, p2, p3));\\n    }\\n\\n    function log(string memory p0, string memory p1, address p2, address p3) internal pure {\\n        _sendLogPayload(abi.encodeWithSignature(\\\"log(string,string,address,address)\\\", p0, p1, p2, p3));\\n    }\\n\\n    function log(string memory p0, bool p1, uint256 p2, uint256 p3) internal pure {\\n        _sendLogPayload(abi.encodeWithSignature(\\\"log(string,bool,uint256,uint256)\\\", p0, p1, p2, p3));\\n    }\\n\\n    function log(string memory p0, bool p1, uint256 p2, string memory p3) internal pure {\\n        _sendLogPayload(abi.encodeWithSignature(\\\"log(string,bool,uint256,string)\\\", p0, p1, p2, p3));\\n    }\\n\\n    function log(string memory p0, bool p1, uint256 p2, bool p3) internal pure {\\n        _sendLogPayload(abi.encodeWithSignature(\\\"log(string,bool,uint256,bool)\\\", p0, p1, p2, p3));\\n    }\\n\\n    function log(string memory p0, bool p1, uint256 p2, address p3) internal pure {\\n        _sendLogPayload(abi.encodeWithSignature(\\\"log(string,bool,uint256,address)\\\", p0, p1, p2, p3));\\n    }\\n\\n    function log(string memory p0, bool p1, string memory p2, uint256 p3) internal pure {\\n        _sendLogPayload(abi.encodeWithSignature(\\\"log(string,bool,string,uint256)\\\", p0, p1, p2, p3));\\n    }\\n\\n    function log(string memory p0, bool p1, string memory p2, string memory p3) internal pure {\\n        _sendLogPayload(abi.encodeWithSignature(\\\"log(string,bool,string,string)\\\", p0, p1, p2, p3));\\n    }\\n\\n    function log(string memory p0, bool p1, string memory p2, bool p3) internal pure {\\n        _sendLogPayload(abi.encodeWithSignature(\\\"log(string,bool,string,bool)\\\", p0, p1, p2, p3));\\n    }\\n\\n    function log(string memory p0, bool p1, string memory p2, address p3) internal pure {\\n        _sendLogPayload(abi.encodeWithSignature(\\\"log(string,bool,string,address)\\\", p0, p1, p2, p3));\\n    }\\n\\n    function log(string memory p0, bool p1, bool p2, uint256 p3) internal pure {\\n        _sendLogPayload(abi.encodeWithSignature(\\\"log(string,bool,bool,uint256)\\\", p0, p1, p2, p3));\\n    }\\n\\n    function log(string memory p0, bool p1, bool p2, string memory p3) internal pure {\\n        _sendLogPayload(abi.encodeWithSignature(\\\"log(string,bool,bool,string)\\\", p0, p1, p2, p3));\\n    }\\n\\n    function log(string memory p0, bool p1, bool p2, bool p3) internal pure {\\n        _sendLogPayload(abi.encodeWithSignature(\\\"log(string,bool,bool,bool)\\\", p0, p1, p2, p3));\\n    }\\n\\n    function log(string memory p0, bool p1, bool p2, address p3) internal pure {\\n        _sendLogPayload(abi.encodeWithSignature(\\\"log(string,bool,bool,address)\\\", p0, p1, p2, p3));\\n    }\\n\\n    function log(string memory p0, bool p1, address p2, uint256 p3) internal pure {\\n        _sendLogPayload(abi.encodeWithSignature(\\\"log(string,bool,address,uint256)\\\", p0, p1, p2, p3));\\n    }\\n\\n    function log(string memory p0, bool p1, address p2, string memory p3) internal pure {\\n        _sendLogPayload(abi.encodeWithSignature(\\\"log(string,bool,address,string)\\\", p0, p1, p2, p3));\\n    }\\n\\n    function log(string memory p0, bool p1, address p2, bool p3) internal pure {\\n        _sendLogPayload(abi.encodeWithSignature(\\\"log(string,bool,address,bool)\\\", p0, p1, p2, p3));\\n    }\\n\\n    function log(string memory p0, bool p1, address p2, address p3) internal pure {\\n        _sendLogPayload(abi.encodeWithSignature(\\\"log(string,bool,address,address)\\\", p0, p1, p2, p3));\\n    }\\n\\n    function log(string memory p0, address p1, uint256 p2, uint256 p3) internal pure {\\n        _sendLogPayload(abi.encodeWithSignature(\\\"log(string,address,uint256,uint256)\\\", p0, p1, p2, p3));\\n    }\\n\\n    function log(string memory p0, address p1, uint256 p2, string memory p3) internal pure {\\n        _sendLogPayload(abi.encodeWithSignature(\\\"log(string,address,uint256,string)\\\", p0, p1, p2, p3));\\n    }\\n\\n    function log(string memory p0, address p1, uint256 p2, bool p3) internal pure {\\n        _sendLogPayload(abi.encodeWithSignature(\\\"log(string,address,uint256,bool)\\\", p0, p1, p2, p3));\\n    }\\n\\n    function log(string memory p0, address p1, uint256 p2, address p3) internal pure {\\n        _sendLogPayload(abi.encodeWithSignature(\\\"log(string,address,uint256,address)\\\", p0, p1, p2, p3));\\n    }\\n\\n    function log(string memory p0, address p1, string memory p2, uint256 p3) internal pure {\\n        _sendLogPayload(abi.encodeWithSignature(\\\"log(string,address,string,uint256)\\\", p0, p1, p2, p3));\\n    }\\n\\n    function log(string memory p0, address p1, string memory p2, string memory p3) internal pure {\\n        _sendLogPayload(abi.encodeWithSignature(\\\"log(string,address,string,string)\\\", p0, p1, p2, p3));\\n    }\\n\\n    function log(string memory p0, address p1, string memory p2, bool p3) internal pure {\\n        _sendLogPayload(abi.encodeWithSignature(\\\"log(string,address,string,bool)\\\", p0, p1, p2, p3));\\n    }\\n\\n    function log(string memory p0, address p1, string memory p2, address p3) internal pure {\\n        _sendLogPayload(abi.encodeWithSignature(\\\"log(string,address,string,address)\\\", p0, p1, p2, p3));\\n    }\\n\\n    function log(string memory p0, address p1, bool p2, uint256 p3) internal pure {\\n        _sendLogPayload(abi.encodeWithSignature(\\\"log(string,address,bool,uint256)\\\", p0, p1, p2, p3));\\n    }\\n\\n    function log(string memory p0, address p1, bool p2, string memory p3) internal pure {\\n        _sendLogPayload(abi.encodeWithSignature(\\\"log(string,address,bool,string)\\\", p0, p1, p2, p3));\\n    }\\n\\n    function log(string memory p0, address p1, bool p2, bool p3) internal pure {\\n        _sendLogPayload(abi.encodeWithSignature(\\\"log(string,address,bool,bool)\\\", p0, p1, p2, p3));\\n    }\\n\\n    function log(string memory p0, address p1, bool p2, address p3) internal pure {\\n        _sendLogPayload(abi.encodeWithSignature(\\\"log(string,address,bool,address)\\\", p0, p1, p2, p3));\\n    }\\n\\n    function log(string memory p0, address p1, address p2, uint256 p3) internal pure {\\n        _sendLogPayload(abi.encodeWithSignature(\\\"log(string,address,address,uint256)\\\", p0, p1, p2, p3));\\n    }\\n\\n    function log(string memory p0, address p1, address p2, string memory p3) internal pure {\\n        _sendLogPayload(abi.encodeWithSignature(\\\"log(string,address,address,string)\\\", p0, p1, p2, p3));\\n    }\\n\\n    function log(string memory p0, address p1, address p2, bool p3) internal pure {\\n        _sendLogPayload(abi.encodeWithSignature(\\\"log(string,address,address,bool)\\\", p0, p1, p2, p3));\\n    }\\n\\n    function log(string memory p0, address p1, address p2, address p3) internal pure {\\n        _sendLogPayload(abi.encodeWithSignature(\\\"log(string,address,address,address)\\\", p0, p1, p2, p3));\\n    }\\n\\n    function log(bool p0, uint256 p1, uint256 p2, uint256 p3) internal pure {\\n        _sendLogPayload(abi.encodeWithSignature(\\\"log(bool,uint256,uint256,uint256)\\\", p0, p1, p2, p3));\\n    }\\n\\n    function log(bool p0, uint256 p1, uint256 p2, string memory p3) internal pure {\\n        _sendLogPayload(abi.encodeWithSignature(\\\"log(bool,uint256,uint256,string)\\\", p0, p1, p2, p3));\\n    }\\n\\n    function log(bool p0, uint256 p1, uint256 p2, bool p3) internal pure {\\n        _sendLogPayload(abi.encodeWithSignature(\\\"log(bool,uint256,uint256,bool)\\\", p0, p1, p2, p3));\\n    }\\n\\n    function log(bool p0, uint256 p1, uint256 p2, address p3) internal pure {\\n        _sendLogPayload(abi.encodeWithSignature(\\\"log(bool,uint256,uint256,address)\\\", p0, p1, p2, p3));\\n    }\\n\\n    function log(bool p0, uint256 p1, string memory p2, uint256 p3) internal pure {\\n        _sendLogPayload(abi.encodeWithSignature(\\\"log(bool,uint256,string,uint256)\\\", p0, p1, p2, p3));\\n    }\\n\\n    function log(bool p0, uint256 p1, string memory p2, string memory p3) internal pure {\\n        _sendLogPayload(abi.encodeWithSignature(\\\"log(bool,uint256,string,string)\\\", p0, p1, p2, p3));\\n    }\\n\\n    function log(bool p0, uint256 p1, string memory p2, bool p3) internal pure {\\n        _sendLogPayload(abi.encodeWithSignature(\\\"log(bool,uint256,string,bool)\\\", p0, p1, p2, p3));\\n    }\\n\\n    function log(bool p0, uint256 p1, string memory p2, address p3) internal pure {\\n        _sendLogPayload(abi.encodeWithSignature(\\\"log(bool,uint256,string,address)\\\", p0, p1, p2, p3));\\n    }\\n\\n    function log(bool p0, uint256 p1, bool p2, uint256 p3) internal pure {\\n        _sendLogPayload(abi.encodeWithSignature(\\\"log(bool,uint256,bool,uint256)\\\", p0, p1, p2, p3));\\n    }\\n\\n    function log(bool p0, uint256 p1, bool p2, string memory p3) internal pure {\\n        _sendLogPayload(abi.encodeWithSignature(\\\"log(bool,uint256,bool,string)\\\", p0, p1, p2, p3));\\n    }\\n\\n    function log(bool p0, uint256 p1, bool p2, bool p3) internal pure {\\n        _sendLogPayload(abi.encodeWithSignature(\\\"log(bool,uint256,bool,bool)\\\", p0, p1, p2, p3));\\n    }\\n\\n    function log(bool p0, uint256 p1, bool p2, address p3) internal pure {\\n        _sendLogPayload(abi.encodeWithSignature(\\\"log(bool,uint256,bool,address)\\\", p0, p1, p2, p3));\\n    }\\n\\n    function log(bool p0, uint256 p1, address p2, uint256 p3) internal pure {\\n        _sendLogPayload(abi.encodeWithSignature(\\\"log(bool,uint256,address,uint256)\\\", p0, p1, p2, p3));\\n    }\\n\\n    function log(bool p0, uint256 p1, address p2, string memory p3) internal pure {\\n        _sendLogPayload(abi.encodeWithSignature(\\\"log(bool,uint256,address,string)\\\", p0, p1, p2, p3));\\n    }\\n\\n    function log(bool p0, uint256 p1, address p2, bool p3) internal pure {\\n        _sendLogPayload(abi.encodeWithSignature(\\\"log(bool,uint256,address,bool)\\\", p0, p1, p2, p3));\\n    }\\n\\n    function log(bool p0, uint256 p1, address p2, address p3) internal pure {\\n        _sendLogPayload(abi.encodeWithSignature(\\\"log(bool,uint256,address,address)\\\", p0, p1, p2, p3));\\n    }\\n\\n    function log(bool p0, string memory p1, uint256 p2, uint256 p3) internal pure {\\n        _sendLogPayload(abi.encodeWithSignature(\\\"log(bool,string,uint256,uint256)\\\", p0, p1, p2, p3));\\n    }\\n\\n    function log(bool p0, string memory p1, uint256 p2, string memory p3) internal pure {\\n        _sendLogPayload(abi.encodeWithSignature(\\\"log(bool,string,uint256,string)\\\", p0, p1, p2, p3));\\n    }\\n\\n    function log(bool p0, string memory p1, uint256 p2, bool p3) internal pure {\\n        _sendLogPayload(abi.encodeWithSignature(\\\"log(bool,string,uint256,bool)\\\", p0, p1, p2, p3));\\n    }\\n\\n    function log(bool p0, string memory p1, uint256 p2, address p3) internal pure {\\n        _sendLogPayload(abi.encodeWithSignature(\\\"log(bool,string,uint256,address)\\\", p0, p1, p2, p3));\\n    }\\n\\n    function log(bool p0, string memory p1, string memory p2, uint256 p3) internal pure {\\n        _sendLogPayload(abi.encodeWithSignature(\\\"log(bool,string,string,uint256)\\\", p0, p1, p2, p3));\\n    }\\n\\n    function log(bool p0, string memory p1, string memory p2, string memory p3) internal pure {\\n        _sendLogPayload(abi.encodeWithSignature(\\\"log(bool,string,string,string)\\\", p0, p1, p2, p3));\\n    }\\n\\n    function log(bool p0, string memory p1, string memory p2, bool p3) internal pure {\\n        _sendLogPayload(abi.encodeWithSignature(\\\"log(bool,string,string,bool)\\\", p0, p1, p2, p3));\\n    }\\n\\n    function log(bool p0, string memory p1, string memory p2, address p3) internal pure {\\n        _sendLogPayload(abi.encodeWithSignature(\\\"log(bool,string,string,address)\\\", p0, p1, p2, p3));\\n    }\\n\\n    function log(bool p0, string memory p1, bool p2, uint256 p3) internal pure {\\n        _sendLogPayload(abi.encodeWithSignature(\\\"log(bool,string,bool,uint256)\\\", p0, p1, p2, p3));\\n    }\\n\\n    function log(bool p0, string memory p1, bool p2, string memory p3) internal pure {\\n        _sendLogPayload(abi.encodeWithSignature(\\\"log(bool,string,bool,string)\\\", p0, p1, p2, p3));\\n    }\\n\\n    function log(bool p0, string memory p1, bool p2, bool p3) internal pure {\\n        _sendLogPayload(abi.encodeWithSignature(\\\"log(bool,string,bool,bool)\\\", p0, p1, p2, p3));\\n    }\\n\\n    function log(bool p0, string memory p1, bool p2, address p3) internal pure {\\n        _sendLogPayload(abi.encodeWithSignature(\\\"log(bool,string,bool,address)\\\", p0, p1, p2, p3));\\n    }\\n\\n    function log(bool p0, string memory p1, address p2, uint256 p3) internal pure {\\n        _sendLogPayload(abi.encodeWithSignature(\\\"log(bool,string,address,uint256)\\\", p0, p1, p2, p3));\\n    }\\n\\n    function log(bool p0, string memory p1, address p2, string memory p3) internal pure {\\n        _sendLogPayload(abi.encodeWithSignature(\\\"log(bool,string,address,string)\\\", p0, p1, p2, p3));\\n    }\\n\\n    function log(bool p0, string memory p1, address p2, bool p3) internal pure {\\n        _sendLogPayload(abi.encodeWithSignature(\\\"log(bool,string,address,bool)\\\", p0, p1, p2, p3));\\n    }\\n\\n    function log(bool p0, string memory p1, address p2, address p3) internal pure {\\n        _sendLogPayload(abi.encodeWithSignature(\\\"log(bool,string,address,address)\\\", p0, p1, p2, p3));\\n    }\\n\\n    function log(bool p0, bool p1, uint256 p2, uint256 p3) internal pure {\\n        _sendLogPayload(abi.encodeWithSignature(\\\"log(bool,bool,uint256,uint256)\\\", p0, p1, p2, p3));\\n    }\\n\\n    function log(bool p0, bool p1, uint256 p2, string memory p3) internal pure {\\n        _sendLogPayload(abi.encodeWithSignature(\\\"log(bool,bool,uint256,string)\\\", p0, p1, p2, p3));\\n    }\\n\\n    function log(bool p0, bool p1, uint256 p2, bool p3) internal pure {\\n        _sendLogPayload(abi.encodeWithSignature(\\\"log(bool,bool,uint256,bool)\\\", p0, p1, p2, p3));\\n    }\\n\\n    function log(bool p0, bool p1, uint256 p2, address p3) internal pure {\\n        _sendLogPayload(abi.encodeWithSignature(\\\"log(bool,bool,uint256,address)\\\", p0, p1, p2, p3));\\n    }\\n\\n    function log(bool p0, bool p1, string memory p2, uint256 p3) internal pure {\\n        _sendLogPayload(abi.encodeWithSignature(\\\"log(bool,bool,string,uint256)\\\", p0, p1, p2, p3));\\n    }\\n\\n    function log(bool p0, bool p1, string memory p2, string memory p3) internal pure {\\n        _sendLogPayload(abi.encodeWithSignature(\\\"log(bool,bool,string,string)\\\", p0, p1, p2, p3));\\n    }\\n\\n    function log(bool p0, bool p1, string memory p2, bool p3) internal pure {\\n        _sendLogPayload(abi.encodeWithSignature(\\\"log(bool,bool,string,bool)\\\", p0, p1, p2, p3));\\n    }\\n\\n    function log(bool p0, bool p1, string memory p2, address p3) internal pure {\\n        _sendLogPayload(abi.encodeWithSignature(\\\"log(bool,bool,string,address)\\\", p0, p1, p2, p3));\\n    }\\n\\n    function log(bool p0, bool p1, bool p2, uint256 p3) internal pure {\\n        _sendLogPayload(abi.encodeWithSignature(\\\"log(bool,bool,bool,uint256)\\\", p0, p1, p2, p3));\\n    }\\n\\n    function log(bool p0, bool p1, bool p2, string memory p3) internal pure {\\n        _sendLogPayload(abi.encodeWithSignature(\\\"log(bool,bool,bool,string)\\\", p0, p1, p2, p3));\\n    }\\n\\n    function log(bool p0, bool p1, bool p2, bool p3) internal pure {\\n        _sendLogPayload(abi.encodeWithSignature(\\\"log(bool,bool,bool,bool)\\\", p0, p1, p2, p3));\\n    }\\n\\n    function log(bool p0, bool p1, bool p2, address p3) internal pure {\\n        _sendLogPayload(abi.encodeWithSignature(\\\"log(bool,bool,bool,address)\\\", p0, p1, p2, p3));\\n    }\\n\\n    function log(bool p0, bool p1, address p2, uint256 p3) internal pure {\\n        _sendLogPayload(abi.encodeWithSignature(\\\"log(bool,bool,address,uint256)\\\", p0, p1, p2, p3));\\n    }\\n\\n    function log(bool p0, bool p1, address p2, string memory p3) internal pure {\\n        _sendLogPayload(abi.encodeWithSignature(\\\"log(bool,bool,address,string)\\\", p0, p1, p2, p3));\\n    }\\n\\n    function log(bool p0, bool p1, address p2, bool p3) internal pure {\\n        _sendLogPayload(abi.encodeWithSignature(\\\"log(bool,bool,address,bool)\\\", p0, p1, p2, p3));\\n    }\\n\\n    function log(bool p0, bool p1, address p2, address p3) internal pure {\\n        _sendLogPayload(abi.encodeWithSignature(\\\"log(bool,bool,address,address)\\\", p0, p1, p2, p3));\\n    }\\n\\n    function log(bool p0, address p1, uint256 p2, uint256 p3) internal pure {\\n        _sendLogPayload(abi.encodeWithSignature(\\\"log(bool,address,uint256,uint256)\\\", p0, p1, p2, p3));\\n    }\\n\\n    function log(bool p0, address p1, uint256 p2, string memory p3) internal pure {\\n        _sendLogPayload(abi.encodeWithSignature(\\\"log(bool,address,uint256,string)\\\", p0, p1, p2, p3));\\n    }\\n\\n    function log(bool p0, address p1, uint256 p2, bool p3) internal pure {\\n        _sendLogPayload(abi.encodeWithSignature(\\\"log(bool,address,uint256,bool)\\\", p0, p1, p2, p3));\\n    }\\n\\n    function log(bool p0, address p1, uint256 p2, address p3) internal pure {\\n        _sendLogPayload(abi.encodeWithSignature(\\\"log(bool,address,uint256,address)\\\", p0, p1, p2, p3));\\n    }\\n\\n    function log(bool p0, address p1, string memory p2, uint256 p3) internal pure {\\n        _sendLogPayload(abi.encodeWithSignature(\\\"log(bool,address,string,uint256)\\\", p0, p1, p2, p3));\\n    }\\n\\n    function log(bool p0, address p1, string memory p2, string memory p3) internal pure {\\n        _sendLogPayload(abi.encodeWithSignature(\\\"log(bool,address,string,string)\\\", p0, p1, p2, p3));\\n    }\\n\\n    function log(bool p0, address p1, string memory p2, bool p3) internal pure {\\n        _sendLogPayload(abi.encodeWithSignature(\\\"log(bool,address,string,bool)\\\", p0, p1, p2, p3));\\n    }\\n\\n    function log(bool p0, address p1, string memory p2, address p3) internal pure {\\n        _sendLogPayload(abi.encodeWithSignature(\\\"log(bool,address,string,address)\\\", p0, p1, p2, p3));\\n    }\\n\\n    function log(bool p0, address p1, bool p2, uint256 p3) internal pure {\\n        _sendLogPayload(abi.encodeWithSignature(\\\"log(bool,address,bool,uint256)\\\", p0, p1, p2, p3));\\n    }\\n\\n    function log(bool p0, address p1, bool p2, string memory p3) internal pure {\\n        _sendLogPayload(abi.encodeWithSignature(\\\"log(bool,address,bool,string)\\\", p0, p1, p2, p3));\\n    }\\n\\n    function log(bool p0, address p1, bool p2, bool p3) internal pure {\\n        _sendLogPayload(abi.encodeWithSignature(\\\"log(bool,address,bool,bool)\\\", p0, p1, p2, p3));\\n    }\\n\\n    function log(bool p0, address p1, bool p2, address p3) internal pure {\\n        _sendLogPayload(abi.encodeWithSignature(\\\"log(bool,address,bool,address)\\\", p0, p1, p2, p3));\\n    }\\n\\n    function log(bool p0, address p1, address p2, uint256 p3) internal pure {\\n        _sendLogPayload(abi.encodeWithSignature(\\\"log(bool,address,address,uint256)\\\", p0, p1, p2, p3));\\n    }\\n\\n    function log(bool p0, address p1, address p2, string memory p3) internal pure {\\n        _sendLogPayload(abi.encodeWithSignature(\\\"log(bool,address,address,string)\\\", p0, p1, p2, p3));\\n    }\\n\\n    function log(bool p0, address p1, address p2, bool p3) internal pure {\\n        _sendLogPayload(abi.encodeWithSignature(\\\"log(bool,address,address,bool)\\\", p0, p1, p2, p3));\\n    }\\n\\n    function log(bool p0, address p1, address p2, address p3) internal pure {\\n        _sendLogPayload(abi.encodeWithSignature(\\\"log(bool,address,address,address)\\\", p0, p1, p2, p3));\\n    }\\n\\n    function log(address p0, uint256 p1, uint256 p2, uint256 p3) internal pure {\\n        _sendLogPayload(abi.encodeWithSignature(\\\"log(address,uint256,uint256,uint256)\\\", p0, p1, p2, p3));\\n    }\\n\\n    function log(address p0, uint256 p1, uint256 p2, string memory p3) internal pure {\\n        _sendLogPayload(abi.encodeWithSignature(\\\"log(address,uint256,uint256,string)\\\", p0, p1, p2, p3));\\n    }\\n\\n    function log(address p0, uint256 p1, uint256 p2, bool p3) internal pure {\\n        _sendLogPayload(abi.encodeWithSignature(\\\"log(address,uint256,uint256,bool)\\\", p0, p1, p2, p3));\\n    }\\n\\n    function log(address p0, uint256 p1, uint256 p2, address p3) internal pure {\\n        _sendLogPayload(abi.encodeWithSignature(\\\"log(address,uint256,uint256,address)\\\", p0, p1, p2, p3));\\n    }\\n\\n    function log(address p0, uint256 p1, string memory p2, uint256 p3) internal pure {\\n        _sendLogPayload(abi.encodeWithSignature(\\\"log(address,uint256,string,uint256)\\\", p0, p1, p2, p3));\\n    }\\n\\n    function log(address p0, uint256 p1, string memory p2, string memory p3) internal pure {\\n        _sendLogPayload(abi.encodeWithSignature(\\\"log(address,uint256,string,string)\\\", p0, p1, p2, p3));\\n    }\\n\\n    function log(address p0, uint256 p1, string memory p2, bool p3) internal pure {\\n        _sendLogPayload(abi.encodeWithSignature(\\\"log(address,uint256,string,bool)\\\", p0, p1, p2, p3));\\n    }\\n\\n    function log(address p0, uint256 p1, string memory p2, address p3) internal pure {\\n        _sendLogPayload(abi.encodeWithSignature(\\\"log(address,uint256,string,address)\\\", p0, p1, p2, p3));\\n    }\\n\\n    function log(address p0, uint256 p1, bool p2, uint256 p3) internal pure {\\n        _sendLogPayload(abi.encodeWithSignature(\\\"log(address,uint256,bool,uint256)\\\", p0, p1, p2, p3));\\n    }\\n\\n    function log(address p0, uint256 p1, bool p2, string memory p3) internal pure {\\n        _sendLogPayload(abi.encodeWithSignature(\\\"log(address,uint256,bool,string)\\\", p0, p1, p2, p3));\\n    }\\n\\n    function log(address p0, uint256 p1, bool p2, bool p3) internal pure {\\n        _sendLogPayload(abi.encodeWithSignature(\\\"log(address,uint256,bool,bool)\\\", p0, p1, p2, p3));\\n    }\\n\\n    function log(address p0, uint256 p1, bool p2, address p3) internal pure {\\n        _sendLogPayload(abi.encodeWithSignature(\\\"log(address,uint256,bool,address)\\\", p0, p1, p2, p3));\\n    }\\n\\n    function log(address p0, uint256 p1, address p2, uint256 p3) internal pure {\\n        _sendLogPayload(abi.encodeWithSignature(\\\"log(address,uint256,address,uint256)\\\", p0, p1, p2, p3));\\n    }\\n\\n    function log(address p0, uint256 p1, address p2, string memory p3) internal pure {\\n        _sendLogPayload(abi.encodeWithSignature(\\\"log(address,uint256,address,string)\\\", p0, p1, p2, p3));\\n    }\\n\\n    function log(address p0, uint256 p1, address p2, bool p3) internal pure {\\n        _sendLogPayload(abi.encodeWithSignature(\\\"log(address,uint256,address,bool)\\\", p0, p1, p2, p3));\\n    }\\n\\n    function log(address p0, uint256 p1, address p2, address p3) internal pure {\\n        _sendLogPayload(abi.encodeWithSignature(\\\"log(address,uint256,address,address)\\\", p0, p1, p2, p3));\\n    }\\n\\n    function log(address p0, string memory p1, uint256 p2, uint256 p3) internal pure {\\n        _sendLogPayload(abi.encodeWithSignature(\\\"log(address,string,uint256,uint256)\\\", p0, p1, p2, p3));\\n    }\\n\\n    function log(address p0, string memory p1, uint256 p2, string memory p3) internal pure {\\n        _sendLogPayload(abi.encodeWithSignature(\\\"log(address,string,uint256,string)\\\", p0, p1, p2, p3));\\n    }\\n\\n    function log(address p0, string memory p1, uint256 p2, bool p3) internal pure {\\n        _sendLogPayload(abi.encodeWithSignature(\\\"log(address,string,uint256,bool)\\\", p0, p1, p2, p3));\\n    }\\n\\n    function log(address p0, string memory p1, uint256 p2, address p3) internal pure {\\n        _sendLogPayload(abi.encodeWithSignature(\\\"log(address,string,uint256,address)\\\", p0, p1, p2, p3));\\n    }\\n\\n    function log(address p0, string memory p1, string memory p2, uint256 p3) internal pure {\\n        _sendLogPayload(abi.encodeWithSignature(\\\"log(address,string,string,uint256)\\\", p0, p1, p2, p3));\\n    }\\n\\n    function log(address p0, string memory p1, string memory p2, string memory p3) internal pure {\\n        _sendLogPayload(abi.encodeWithSignature(\\\"log(address,string,string,string)\\\", p0, p1, p2, p3));\\n    }\\n\\n    function log(address p0, string memory p1, string memory p2, bool p3) internal pure {\\n        _sendLogPayload(abi.encodeWithSignature(\\\"log(address,string,string,bool)\\\", p0, p1, p2, p3));\\n    }\\n\\n    function log(address p0, string memory p1, string memory p2, address p3) internal pure {\\n        _sendLogPayload(abi.encodeWithSignature(\\\"log(address,string,string,address)\\\", p0, p1, p2, p3));\\n    }\\n\\n    function log(address p0, string memory p1, bool p2, uint256 p3) internal pure {\\n        _sendLogPayload(abi.encodeWithSignature(\\\"log(address,string,bool,uint256)\\\", p0, p1, p2, p3));\\n    }\\n\\n    function log(address p0, string memory p1, bool p2, string memory p3) internal pure {\\n        _sendLogPayload(abi.encodeWithSignature(\\\"log(address,string,bool,string)\\\", p0, p1, p2, p3));\\n    }\\n\\n    function log(address p0, string memory p1, bool p2, bool p3) internal pure {\\n        _sendLogPayload(abi.encodeWithSignature(\\\"log(address,string,bool,bool)\\\", p0, p1, p2, p3));\\n    }\\n\\n    function log(address p0, string memory p1, bool p2, address p3) internal pure {\\n        _sendLogPayload(abi.encodeWithSignature(\\\"log(address,string,bool,address)\\\", p0, p1, p2, p3));\\n    }\\n\\n    function log(address p0, string memory p1, address p2, uint256 p3) internal pure {\\n        _sendLogPayload(abi.encodeWithSignature(\\\"log(address,string,address,uint256)\\\", p0, p1, p2, p3));\\n    }\\n\\n    function log(address p0, string memory p1, address p2, string memory p3) internal pure {\\n        _sendLogPayload(abi.encodeWithSignature(\\\"log(address,string,address,string)\\\", p0, p1, p2, p3));\\n    }\\n\\n    function log(address p0, string memory p1, address p2, bool p3) internal pure {\\n        _sendLogPayload(abi.encodeWithSignature(\\\"log(address,string,address,bool)\\\", p0, p1, p2, p3));\\n    }\\n\\n    function log(address p0, string memory p1, address p2, address p3) internal pure {\\n        _sendLogPayload(abi.encodeWithSignature(\\\"log(address,string,address,address)\\\", p0, p1, p2, p3));\\n    }\\n\\n    function log(address p0, bool p1, uint256 p2, uint256 p3) internal pure {\\n        _sendLogPayload(abi.encodeWithSignature(\\\"log(address,bool,uint256,uint256)\\\", p0, p1, p2, p3));\\n    }\\n\\n    function log(address p0, bool p1, uint256 p2, string memory p3) internal pure {\\n        _sendLogPayload(abi.encodeWithSignature(\\\"log(address,bool,uint256,string)\\\", p0, p1, p2, p3));\\n    }\\n\\n    function log(address p0, bool p1, uint256 p2, bool p3) internal pure {\\n        _sendLogPayload(abi.encodeWithSignature(\\\"log(address,bool,uint256,bool)\\\", p0, p1, p2, p3));\\n    }\\n\\n    function log(address p0, bool p1, uint256 p2, address p3) internal pure {\\n        _sendLogPayload(abi.encodeWithSignature(\\\"log(address,bool,uint256,address)\\\", p0, p1, p2, p3));\\n    }\\n\\n    function log(address p0, bool p1, string memory p2, uint256 p3) internal pure {\\n        _sendLogPayload(abi.encodeWithSignature(\\\"log(address,bool,string,uint256)\\\", p0, p1, p2, p3));\\n    }\\n\\n    function log(address p0, bool p1, string memory p2, string memory p3) internal pure {\\n        _sendLogPayload(abi.encodeWithSignature(\\\"log(address,bool,string,string)\\\", p0, p1, p2, p3));\\n    }\\n\\n    function log(address p0, bool p1, string memory p2, bool p3) internal pure {\\n        _sendLogPayload(abi.encodeWithSignature(\\\"log(address,bool,string,bool)\\\", p0, p1, p2, p3));\\n    }\\n\\n    function log(address p0, bool p1, string memory p2, address p3) internal pure {\\n        _sendLogPayload(abi.encodeWithSignature(\\\"log(address,bool,string,address)\\\", p0, p1, p2, p3));\\n    }\\n\\n    function log(address p0, bool p1, bool p2, uint256 p3) internal pure {\\n        _sendLogPayload(abi.encodeWithSignature(\\\"log(address,bool,bool,uint256)\\\", p0, p1, p2, p3));\\n    }\\n\\n    function log(address p0, bool p1, bool p2, string memory p3) internal pure {\\n        _sendLogPayload(abi.encodeWithSignature(\\\"log(address,bool,bool,string)\\\", p0, p1, p2, p3));\\n    }\\n\\n    function log(address p0, bool p1, bool p2, bool p3) internal pure {\\n        _sendLogPayload(abi.encodeWithSignature(\\\"log(address,bool,bool,bool)\\\", p0, p1, p2, p3));\\n    }\\n\\n    function log(address p0, bool p1, bool p2, address p3) internal pure {\\n        _sendLogPayload(abi.encodeWithSignature(\\\"log(address,bool,bool,address)\\\", p0, p1, p2, p3));\\n    }\\n\\n    function log(address p0, bool p1, address p2, uint256 p3) internal pure {\\n        _sendLogPayload(abi.encodeWithSignature(\\\"log(address,bool,address,uint256)\\\", p0, p1, p2, p3));\\n    }\\n\\n    function log(address p0, bool p1, address p2, string memory p3) internal pure {\\n        _sendLogPayload(abi.encodeWithSignature(\\\"log(address,bool,address,string)\\\", p0, p1, p2, p3));\\n    }\\n\\n    function log(address p0, bool p1, address p2, bool p3) internal pure {\\n        _sendLogPayload(abi.encodeWithSignature(\\\"log(address,bool,address,bool)\\\", p0, p1, p2, p3));\\n    }\\n\\n    function log(address p0, bool p1, address p2, address p3) internal pure {\\n        _sendLogPayload(abi.encodeWithSignature(\\\"log(address,bool,address,address)\\\", p0, p1, p2, p3));\\n    }\\n\\n    function log(address p0, address p1, uint256 p2, uint256 p3) internal pure {\\n        _sendLogPayload(abi.encodeWithSignature(\\\"log(address,address,uint256,uint256)\\\", p0, p1, p2, p3));\\n    }\\n\\n    function log(address p0, address p1, uint256 p2, string memory p3) internal pure {\\n        _sendLogPayload(abi.encodeWithSignature(\\\"log(address,address,uint256,string)\\\", p0, p1, p2, p3));\\n    }\\n\\n    function log(address p0, address p1, uint256 p2, bool p3) internal pure {\\n        _sendLogPayload(abi.encodeWithSignature(\\\"log(address,address,uint256,bool)\\\", p0, p1, p2, p3));\\n    }\\n\\n    function log(address p0, address p1, uint256 p2, address p3) internal pure {\\n        _sendLogPayload(abi.encodeWithSignature(\\\"log(address,address,uint256,address)\\\", p0, p1, p2, p3));\\n    }\\n\\n    function log(address p0, address p1, string memory p2, uint256 p3) internal pure {\\n        _sendLogPayload(abi.encodeWithSignature(\\\"log(address,address,string,uint256)\\\", p0, p1, p2, p3));\\n    }\\n\\n    function log(address p0, address p1, string memory p2, string memory p3) internal pure {\\n        _sendLogPayload(abi.encodeWithSignature(\\\"log(address,address,string,string)\\\", p0, p1, p2, p3));\\n    }\\n\\n    function log(address p0, address p1, string memory p2, bool p3) internal pure {\\n        _sendLogPayload(abi.encodeWithSignature(\\\"log(address,address,string,bool)\\\", p0, p1, p2, p3));\\n    }\\n\\n    function log(address p0, address p1, string memory p2, address p3) internal pure {\\n        _sendLogPayload(abi.encodeWithSignature(\\\"log(address,address,string,address)\\\", p0, p1, p2, p3));\\n    }\\n\\n    function log(address p0, address p1, bool p2, uint256 p3) internal pure {\\n        _sendLogPayload(abi.encodeWithSignature(\\\"log(address,address,bool,uint256)\\\", p0, p1, p2, p3));\\n    }\\n\\n    function log(address p0, address p1, bool p2, string memory p3) internal pure {\\n        _sendLogPayload(abi.encodeWithSignature(\\\"log(address,address,bool,string)\\\", p0, p1, p2, p3));\\n    }\\n\\n    function log(address p0, address p1, bool p2, bool p3) internal pure {\\n        _sendLogPayload(abi.encodeWithSignature(\\\"log(address,address,bool,bool)\\\", p0, p1, p2, p3));\\n    }\\n\\n    function log(address p0, address p1, bool p2, address p3) internal pure {\\n        _sendLogPayload(abi.encodeWithSignature(\\\"log(address,address,bool,address)\\\", p0, p1, p2, p3));\\n    }\\n\\n    function log(address p0, address p1, address p2, uint256 p3) internal pure {\\n        _sendLogPayload(abi.encodeWithSignature(\\\"log(address,address,address,uint256)\\\", p0, p1, p2, p3));\\n    }\\n\\n    function log(address p0, address p1, address p2, string memory p3) internal pure {\\n        _sendLogPayload(abi.encodeWithSignature(\\\"log(address,address,address,string)\\\", p0, p1, p2, p3));\\n    }\\n\\n    function log(address p0, address p1, address p2, bool p3) internal pure {\\n        _sendLogPayload(abi.encodeWithSignature(\\\"log(address,address,address,bool)\\\", p0, p1, p2, p3));\\n    }\\n\\n    function log(address p0, address p1, address p2, address p3) internal pure {\\n        _sendLogPayload(abi.encodeWithSignature(\\\"log(address,address,address,address)\\\", p0, p1, p2, p3));\\n    }\\n}\\n\"}}}",
	"name": "Owner",
	"bytecode": {
		"linkReferences": {},
		"object": "608060405234801561001057600080fd5b5061005a6040518060400160405280601b81526020017f4f776e657220636f6e7472616374206465706c6f7965642062793a0000000000815250336100a860201b61018b1760201c565b600080546001600160a01b03191633178082556040516001600160a01b039190911691907f342827c97908e5e2f71151c08502a66d44b6f758e3ac2f1de95f02eb95f0a735908290a36101aa565b61016482826040516024018080602001836001600160a01b03168152602001828103825284818151815260200191508051906020019080838360005b838110156100fc5781810151838201526020016100e4565b50505050905090810190601f1680156101295780820380516001836020036101000a031916815260200191505b5060408051601f198184030181529190526020810180516001600160e01b0390811663319af33360e01b179091529094506101681692505050565b5050565b6101838161017e61024661018660201b176101a7565b60201c565b50565b60006a636f6e736f6c652e6c6f679050600080835160208501845afa505050565b90565b6102e4806101b96000396000f3fe608060405234801561001057600080fd5b50600436106100365760003560e01c8063893d20e81461003b578063a6f9dae11461005f575b600080fd5b610043610087565b604080516001600160a01b039092168252519081900360200190f35b6100856004803603602081101561007557600080fd5b50356001600160a01b0316610096565b005b6000546001600160a01b031690565b6000546001600160a01b031633146100eb576040805162461bcd60e51b815260206004820152601360248201527221b0b63632b91034b9903737ba1037bbb732b960691b604482015290519081900360640190fd5b6001600160a01b0381166101305760405162461bcd60e51b81526004018080602001828103825260288152602001806102876028913960400191505060405180910390fd5b600080546040516001600160a01b03808516939216917f342827c97908e5e2f71151c08502a66d44b6f758e3ac2f1de95f02eb95f0a73591a3600080546001600160a01b0319166001600160a01b0392909216919091179055565b61024282826040516024018080602001836001600160a01b03168152602001828103825284818151815260200191508051906020019080838360005b838110156101df5781810151838201526020016101c7565b50505050905090810190601f16801561020c5780820380516001836020036101000a031916815260200191505b5060408051601f198184030181529190526020810180516001600160e01b031663319af33360e01b179052935061026792505050565b5050565b60006a636f6e736f6c652e6c6f679050600080835160208501845afa505050565b61027e81610276610246610281565b63ffffffff16565b50565b90565bfefe4e6577206f776e65722073686f756c64206e6f7420626520746865207a65726f2061646472657373a2646970667358221220e3e0ba10c64ca7be6f55392e4c6af4cdda5cfb952753cb51680c5b16d675904764736f6c63430007060033",
		"opcodes": "PUSH1 0x80 PUSH1 0x40 MSTORE CALLVALUE DUP1 ISZERO PUSH2 0x10 JUMPI PUSH1 0x0 DUP1 REVERT JUMPDEST POP PUSH2 0x5A PUSH1 0x40 MLOAD DUP1 PUSH1 0x40 ADD PUSH1 0x40 MSTORE DUP1 PUSH1 0x1B DUP2 MSTORE PUSH1 0x20 ADD PUSH32 0x4F776E657220636F6E7472616374206465706C6F7965642062793A0000000000 DUP2 MSTORE POP CALLER PUSH2 0xA8 PUSH1 0x20 SHL PUSH2 0x18B OR PUSH1 0x20 SHR JUMP JUMPDEST PUSH1 0x0 DUP1 SLOAD PUSH1 0x1 PUSH1 0x1 PUSH1 0xA0 SHL SUB NOT AND CALLER OR DUP1 DUP3 SSTORE PUSH1 0x40 MLOAD PUSH1 0x1 PUSH1 0x1 PUSH1 0xA0 SHL SUB SWAP2 SWAP1 SWAP2 AND SWAP2 SWAP1 PUSH32 0x342827C97908E5E2F71151C08502A66D44B6F758E3AC2F1DE95F02EB95F0A735 SWAP1 DUP3 SWAP1 LOG3 PUSH2 0x1AA JUMP JUMPDEST PUSH2 0x164 DUP3 DUP3 PUSH1 0x40 MLOAD PUSH1 0x24 ADD DUP1 DUP1 PUSH1 0x20 ADD DUP4 PUSH1 0x1 PUSH1 0x1 PUSH1 0xA0 SHL SUB AND DUP2 MSTORE PUSH1 0x20 ADD DUP3 DUP2 SUB DUP3 MSTORE DUP5 DUP2 DUP2 MLOAD DUP2 MSTORE PUSH1 0x20 ADD SWAP2 POP DUP1 MLOAD SWAP1 PUSH1 0x20 ADD SWAP1 DUP1 DUP4 DUP4 PUSH1 0x0 JUMPDEST DUP4 DUP2 LT ISZERO PUSH2 0xFC JUMPI DUP2 DUP2 ADD MLOAD DUP4 DUP3 ADD MSTORE PUSH1 0x20 ADD PUSH2 0xE4 JUMP JUMPDEST POP POP POP POP SWAP1 POP SWAP1 DUP2 ADD SWAP1 PUSH1 0x1F AND DUP1 ISZERO PUSH2 0x129 JUMPI DUP1 DUP3 SUB DUP1 MLOAD PUSH1 0x1 DUP4 PUSH1 0x20 SUB PUSH2 0x100 EXP SUB NOT AND DUP2 MSTORE PUSH1 0x20 ADD SWAP2 POP JUMPDEST POP PUSH1 0x40 DUP1 MLOAD PUSH1 0x1F NOT DUP2 DUP5 SUB ADD DUP2 MSTORE SWAP2 SWAP1 MSTORE PUSH1 0x20 DUP2 ADD DUP1 MLOAD PUSH1 0x1 PUSH1 0x1 PUSH1 0xE0 SHL SUB SWAP1 DUP2 AND PUSH4 0x319AF333 PUSH1 0xE0 SHL OR SWAP1 SWAP2 MSTORE SWAP1 SWAP5 POP PUSH2 0x168 AND SWAP3 POP POP POP JUMP JUMPDEST POP POP JUMP JUMPDEST PUSH2 0x183 DUP2 PUSH2 0x17E PUSH2 0x246 PUSH2 0x186 PUSH1 0x20 SHL OR PUSH2 0x1A7 JUMP JUMPDEST PUSH1 0x20 SHR JUMP JUMPDEST POP JUMP JUMPDEST PUSH1 0x0 PUSH11 0x636F6E736F6C652E6C6F67 SWAP1 POP PUSH1 0x0 DUP1 DUP4 MLOAD PUSH1 0x20 DUP6 ADD DUP5 GAS STATICCALL POP POP POP JUMP JUMPDEST SWAP1 JUMP JUMPDEST PUSH2 0x2E4 DUP1 PUSH2 0x1B9 PUSH1 0x0 CODECOPY PUSH1 0x0 RETURN INVALID PUSH1 0x80 PUSH1 0x40 MSTORE CALLVALUE DUP1 ISZERO PUSH2 0x10 JUMPI PUSH1 0x0 DUP1 REVERT JUMPDEST POP PUSH1 0x4 CALLDATASIZE LT PUSH2 0x36 JUMPI PUSH1 0x0 CALLDATALOAD PUSH1 0xE0 SHR DUP1 PUSH4 0x893D20E8 EQ PUSH2 0x3B JUMPI DUP1 PUSH4 0xA6F9DAE1 EQ PUSH2 0x5F JUMPI JUMPDEST PUSH1 0x0 DUP1 REVERT JUMPDEST PUSH2 0x43 PUSH2 0x87 JUMP JUMPDEST PUSH1 0x40 DUP1 MLOAD PUSH1 0x1 PUSH1 0x1 PUSH1 0xA0 SHL SUB SWAP1 SWAP3 AND DUP3 MSTORE MLOAD SWAP1 DUP2 SWAP1 SUB PUSH1 0x20 ADD SWAP1 RETURN JUMPDEST PUSH2 0x85 PUSH1 0x4 DUP1 CALLDATASIZE SUB PUSH1 0x20 DUP2 LT ISZERO PUSH2 0x75 JUMPI PUSH1 0x0 DUP1 REVERT JUMPDEST POP CALLDATALOAD PUSH1 0x1 PUSH1 0x1 PUSH1 0xA0 SHL SUB AND PUSH2 0x96 JUMP JUMPDEST STOP JUMPDEST PUSH1 0x0 SLOAD PUSH1 0x1 PUSH1 0x1 PUSH1 0xA0 SHL SUB AND SWAP1 JUMP JUMPDEST PUSH1 0x0 SLOAD PUSH1 0x1 PUSH1 0x1 PUSH1 0xA0 SHL SUB AND CALLER EQ PUSH2 0xEB JUMPI PUSH1 0x40 DUP1 MLOAD PUSH3 0x461BCD PUSH1 0xE5 SHL DUP2 MSTORE PUSH1 0x20 PUSH1 0x4 DUP3 ADD MSTORE PUSH1 0x13 PUSH1 0x24 DUP3 ADD MSTORE PUSH19 0x21B0B63632B91034B9903737BA1037BBB732B9 PUSH1 0x69 SHL PUSH1 0x44 DUP3 ADD MSTORE SWAP1 MLOAD SWAP1 DUP2 SWAP1 SUB PUSH1 0x64 ADD SWAP1 REVERT JUMPDEST PUSH1 0x1 PUSH1 0x1 PUSH1 0xA0 SHL SUB DUP2 AND PUSH2 0x130 JUMPI PUSH1 0x40 MLOAD PUSH3 0x461BCD PUSH1 0xE5 SHL DUP2 MSTORE PUSH1 0x4 ADD DUP1 DUP1 PUSH1 0x20 ADD DUP3 DUP2 SUB DUP3 MSTORE PUSH1 0x28 DUP2 MSTORE PUSH1 0x20 ADD DUP1 PUSH2 0x287 PUSH1 0x28 SWAP2 CODECOPY PUSH1 0x40 ADD SWAP2 POP POP PUSH1 0x40 MLOAD DUP1 SWAP2 SUB SWAP1 REVERT JUMPDEST PUSH1 0x0 DUP1 SLOAD PUSH1 0x40 MLOAD PUSH1 0x1 PUSH1 0x1 PUSH1 0xA0 SHL SUB DUP1 DUP6 AND SWAP4 SWAP3 AND SWAP2 PUSH32 0x342827C97908E5E2F71151C08502A66D44B6F758E3AC2F1DE95F02EB95F0A735 SWAP2 LOG3 PUSH1 0x0 DUP1 SLOAD PUSH1 0x1 PUSH1 0x1 PUSH1 0xA0 SHL SUB NOT AND PUSH1 0x1 PUSH1 0x1 PUSH1 0xA0 SHL SUB SWAP3 SWAP1 SWAP3 AND SWAP2 SWAP1 SWAP2 OR SWAP1 SSTORE JUMP JUMPDEST PUSH2 0x242 DUP3 DUP3 PUSH1 0x40 MLOAD PUSH1 0x24 ADD DUP1 DUP1 PUSH1 0x20 ADD DUP4 PUSH1 0x1 PUSH1 0x1 PUSH1 0xA0 SHL SUB AND DUP2 MSTORE PUSH1 0x20 ADD DUP3 DUP2 SUB DUP3 MSTORE DUP5 DUP2 DUP2 MLOAD DUP2 MSTORE PUSH1 0x20 ADD SWAP2 POP DUP1 MLOAD SWAP1 PUSH1 0x20 ADD SWAP1 DUP1 DUP4 DUP4 PUSH1 0x0 JUMPDEST DUP4 DUP2 LT ISZERO PUSH2 0x1DF JUMPI DUP2 DUP2 ADD MLOAD DUP4 DUP3 ADD MSTORE PUSH1 0x20 ADD PUSH2 0x1C7 JUMP JUMPDEST POP POP POP POP SWAP1 POP SWAP1 DUP2 ADD SWAP1 PUSH1 0x1F AND DUP1 ISZERO PUSH2 0x20C JUMPI DUP1 DUP3 SUB DUP1 MLOAD PUSH1 0x1 DUP4 PUSH1 0x20 SUB PUSH2 0x100 EXP SUB NOT AND DUP2 MSTORE PUSH1 0x20 ADD SWAP2 POP JUMPDEST POP PUSH1 0x40 DUP1 MLOAD PUSH1 0x1F NOT DUP2 DUP5 SUB ADD DUP2 MSTORE SWAP2 SWAP1 MSTORE PUSH1 0x20 DUP2 ADD DUP1 MLOAD PUSH1 0x1 PUSH1 0x1 PUSH1 0xE0 SHL SUB AND PUSH4 0x319AF333 PUSH1 0xE0 SHL OR SWAP1 MSTORE SWAP4 POP PUSH2 0x267 SWAP3 POP POP POP JUMP JUMPDEST POP POP JUMP JUMPDEST PUSH1 0x0 PUSH11 0x636F6E736F6C652E6C6F67 SWAP1 POP PUSH1 0x0 DUP1 DUP4 MLOAD PUSH1 0x20 DUP6 ADD DUP5 GAS STATICCALL POP POP POP JUMP JUMPDEST PUSH2 0x27E DUP2 PUSH2 0x276 PUSH2 0x246 PUSH2 0x281 JUMP JUMPDEST PUSH4 0xFFFFFFFF AND JUMP JUMPDEST POP JUMP JUMPDEST SWAP1 JUMP JUMPDEST INVALID INVALID 0x4E PUSH6 0x77206F776E65 PUSH19 0x2073686F756C64206E6F742062652074686520 PUSH27 0x65726F2061646472657373A2646970667358221220E3E0BA10C64C 0xA7 0xBE PUSH16 0x55392E4C6AF4CDDA5CFB952753CB5168 0xC JUMPDEST AND 0xD6 PUSH22 0x904764736F6C63430007060033000000000000000000 "
	},
	"abi": [
		{
			"inputs": [],
			"stateMutability": "nonpayable",
			"type": "constructor"
		},
		{
			"anonymous": false,
			"inputs": [
				{
					"indexed": true,
					"internalType": "address",
					"name": "oldOwner",
					"type": "address"
				},
				{
					"indexed": true,
					"internalType": "address",
					"name": "newOwner",
					"type": "address"
				}
			],
			"name": "OwnerSet",
			"type": "event"
		},
		{
			"inputs": [
				{
					"internalType": "address",
					"name": "newOwner",
					"type": "address"
				}
			],
			"name": "changeOwner",
			"outputs": [],
			"stateMutability": "nonpayable",
			"type": "function"
		},
		{
			"inputs": [],
			"name": "getOwner",
			"outputs": [
				{
					"internalType": "address",
					"name": "",
					"type": "address"
				}
			],
			"stateMutability": "view",
			"type": "function"
		}
	],
	"storageLayout": {
		"storage": [
			{
				"astId": 5,
				"contract": "contracts/2_Owner.sol:Owner",
				"label": "owner",
				"offset": 0,
				"slot": "0",
				"type": "t_address"
			}
		],
		"types": {
			"t_address": {
				"encoding": "inplace",
				"label": "address",
				"numberOfBytes": "20"
			}
		}
	},
	"web3Deploy": "var ownerContract = new web3.eth.Contract([{\"inputs\":[],\"stateMutability\":\"nonpayable\",\"type\":\"constructor\"},{\"anonymous\":false,\"inputs\":[{\"indexed\":true,\"internalType\":\"address\",\"name\":\"oldOwner\",\"type\":\"address\"},{\"indexed\":true,\"internalType\":\"address\",\"name\":\"newOwner\",\"type\":\"address\"}],\"name\":\"OwnerSet\",\"type\":\"event\"},{\"inputs\":[{\"internalType\":\"address\",\"name\":\"newOwner\",\"type\":\"address\"}],\"name\":\"changeOwner\",\"outputs\":[],\"stateMutability\":\"nonpayable\",\"type\":\"function\"},{\"inputs\":[],\"name\":\"getOwner\",\"outputs\":[{\"internalType\":\"address\",\"name\":\"\",\"type\":\"address\"}],\"stateMutability\":\"view\",\"type\":\"function\"}]);\nvar owner = ownerContract.deploy({\n     data: '0x608060405234801561001057600080fd5b5061005a6040518060400160405280601b81526020017f4f776e657220636f6e7472616374206465706c6f7965642062793a0000000000815250336100a860201b61018b1760201c565b600080546001600160a01b03191633178082556040516001600160a01b039190911691907f342827c97908e5e2f71151c08502a66d44b6f758e3ac2f1de95f02eb95f0a735908290a36101aa565b61016482826040516024018080602001836001600160a01b03168152602001828103825284818151815260200191508051906020019080838360005b838110156100fc5781810151838201526020016100e4565b50505050905090810190601f1680156101295780820380516001836020036101000a031916815260200191505b5060408051601f198184030181529190526020810180516001600160e01b0390811663319af33360e01b179091529094506101681692505050565b5050565b6101838161017e61024661018660201b176101a7565b60201c565b50565b60006a636f6e736f6c652e6c6f679050600080835160208501845afa505050565b90565b6102e4806101b96000396000f3fe608060405234801561001057600080fd5b50600436106100365760003560e01c8063893d20e81461003b578063a6f9dae11461005f575b600080fd5b610043610087565b604080516001600160a01b039092168252519081900360200190f35b6100856004803603602081101561007557600080fd5b50356001600160a01b0316610096565b005b6000546001600160a01b031690565b6000546001600160a01b031633146100eb576040805162461bcd60e51b815260206004820152601360248201527221b0b63632b91034b9903737ba1037bbb732b960691b604482015290519081900360640190fd5b6001600160a01b0381166101305760405162461bcd60e51b81526004018080602001828103825260288152602001806102876028913960400191505060405180910390fd5b600080546040516001600160a01b03808516939216917f342827c97908e5e2f71151c08502a66d44b6f758e3ac2f1de95f02eb95f0a73591a3600080546001600160a01b0319166001600160a01b0392909216919091179055565b61024282826040516024018080602001836001600160a01b03168152602001828103825284818151815260200191508051906020019080838360005b838110156101df5781810151838201526020016101c7565b50505050905090810190601f16801561020c5780820380516001836020036101000a031916815260200191505b5060408051601f198184030181529190526020810180516001600160e01b031663319af33360e01b179052935061026792505050565b5050565b60006a636f6e736f6c652e6c6f679050600080835160208501845afa505050565b61027e81610276610246610281565b63ffffffff16565b50565b90565bfefe4e6577206f776e65722073686f756c64206e6f7420626520746865207a65726f2061646472657373a2646970667358221220e3e0ba10c64ca7be6f55392e4c6af4cdda5cfb952753cb51680c5b16d675904764736f6c63430007060033', \n     arguments: [\n     ]\n}).send({\n     from: web3.eth.accounts[0], \n     gas: '4700000'\n   }, function (e, contract){\n    console.log(e, contract);\n    if (typeof contract.address !== 'undefined') {\n         console.log('Contract mined! address: ' + contract.address + ' transactionHash: ' + contract.transactionHash);\n    }\n })",
	"functionHashes": {
		"a6f9dae1": "changeOwner(address)",
		"893d20e8": "getOwner()"
	},
	"gasEstimates": {
		"Creation": {
			"codeDepositCost": "148000",
			"executionCost": "infinite",
			"totalCost": "infinite"
		},
		"External": {
			"changeOwner(address)": "infinite",
			"getOwner()": "1015"
		}
	},
	"devdoc": {
		"details": "Set & change owner",
		"kind": "dev",
		"methods": {
			"changeOwner(address)": {
				"details": "Change owner",
				"params": {
					"newOwner": "address of new owner"
				}
			},
			"constructor": {
				"details": "Set contract deployer as owner"
			},
			"getOwner()": {
				"details": "Return owner address ",
				"returns": {
					"_0": "address of owner"
				}
			}
		},
		"title": "Owner",
		"version": 1
	},
	"userdoc": {
		"kind": "user",
		"methods": {},
		"version": 1
	},
	"Runtime Bytecode": {
		"immutableReferences": {},
		"linkReferences": {},
		"object": "608060405234801561001057600080fd5b50600436106100365760003560e01c8063893d20e81461003b578063a6f9dae11461005f575b600080fd5b610043610087565b604080516001600160a01b039092168252519081900360200190f35b6100856004803603602081101561007557600080fd5b50356001600160a01b0316610096565b005b6000546001600160a01b031690565b6000546001600160a01b031633146100eb576040805162461bcd60e51b815260206004820152601360248201527221b0b63632b91034b9903737ba1037bbb732b960691b604482015290519081900360640190fd5b6001600160a01b0381166101305760405162461bcd60e51b81526004018080602001828103825260288152602001806102876028913960400191505060405180910390fd5b600080546040516001600160a01b03808516939216917f342827c97908e5e2f71151c08502a66d44b6f758e3ac2f1de95f02eb95f0a73591a3600080546001600160a01b0319166001600160a01b0392909216919091179055565b61024282826040516024018080602001836001600160a01b03168152602001828103825284818151815260200191508051906020019080838360005b838110156101df5781810151838201526020016101c7565b50505050905090810190601f16801561020c5780820380516001836020036101000a031916815260200191505b5060408051601f198184030181529190526020810180516001600160e01b031663319af33360e01b179052935061026792505050565b5050565b60006a636f6e736f6c652e6c6f679050600080835160208501845afa505050565b61027e81610276610246610281565b63ffffffff16565b50565b90565bfefe4e6577206f776e65722073686f756c64206e6f7420626520746865207a65726f2061646472657373a2646970667358221220e3e0ba10c64ca7be6f55392e4c6af4cdda5cfb952753cb51680c5b16d675904764736f6c63430007060033",
		"opcodes": "PUSH1 0x80 PUSH1 0x40 MSTORE CALLVALUE DUP1 ISZERO PUSH2 0x10 JUMPI PUSH1 0x0 DUP1 REVERT JUMPDEST POP PUSH1 0x4 CALLDATASIZE LT PUSH2 0x36 JUMPI PUSH1 0x0 CALLDATALOAD PUSH1 0xE0 SHR DUP1 PUSH4 0x893D20E8 EQ PUSH2 0x3B JUMPI DUP1 PUSH4 0xA6F9DAE1 EQ PUSH2 0x5F JUMPI JUMPDEST PUSH1 0x0 DUP1 REVERT JUMPDEST PUSH2 0x43 PUSH2 0x87 JUMP JUMPDEST PUSH1 0x40 DUP1 MLOAD PUSH1 0x1 PUSH1 0x1 PUSH1 0xA0 SHL SUB SWAP1 SWAP3 AND DUP3 MSTORE MLOAD SWAP1 DUP2 SWAP1 SUB PUSH1 0x20 ADD SWAP1 RETURN JUMPDEST PUSH2 0x85 PUSH1 0x4 DUP1 CALLDATASIZE SUB PUSH1 0x20 DUP2 LT ISZERO PUSH2 0x75 JUMPI PUSH1 0x0 DUP1 REVERT JUMPDEST POP CALLDATALOAD PUSH1 0x1 PUSH1 0x1 PUSH1 0xA0 SHL SUB AND PUSH2 0x96 JUMP JUMPDEST STOP JUMPDEST PUSH1 0x0 SLOAD PUSH1 0x1 PUSH1 0x1 PUSH1 0xA0 SHL SUB AND SWAP1 JUMP JUMPDEST PUSH1 0x0 SLOAD PUSH1 0x1 PUSH1 0x1 PUSH1 0xA0 SHL SUB AND CALLER EQ PUSH2 0xEB JUMPI PUSH1 0x40 DUP1 MLOAD PUSH3 0x461BCD PUSH1 0xE5 SHL DUP2 MSTORE PUSH1 0x20 PUSH1 0x4 DUP3 ADD MSTORE PUSH1 0x13 PUSH1 0x24 DUP3 ADD MSTORE PUSH19 0x21B0B63632B91034B9903737BA1037BBB732B9 PUSH1 0x69 SHL PUSH1 0x44 DUP3 ADD MSTORE SWAP1 MLOAD SWAP1 DUP2 SWAP1 SUB PUSH1 0x64 ADD SWAP1 REVERT JUMPDEST PUSH1 0x1 PUSH1 0x1 PUSH1 0xA0 SHL SUB DUP2 AND PUSH2 0x130 JUMPI PUSH1 0x40 MLOAD PUSH3 0x461BCD PUSH1 0xE5 SHL DUP2 MSTORE PUSH1 0x4 ADD DUP1 DUP1 PUSH1 0x20 ADD DUP3 DUP2 SUB DUP3 MSTORE PUSH1 0x28 DUP2 MSTORE PUSH1 0x20 ADD DUP1 PUSH2 0x287 PUSH1 0x28 SWAP2 CODECOPY PUSH1 0x40 ADD SWAP2 POP POP PUSH1 0x40 MLOAD DUP1 SWAP2 SUB SWAP1 REVERT JUMPDEST PUSH1 0x0 DUP1 SLOAD PUSH1 0x40 MLOAD PUSH1 0x1 PUSH1 0x1 PUSH1 0xA0 SHL SUB DUP1 DUP6 AND SWAP4 SWAP3 AND SWAP2 PUSH32 0x342827C97908E5E2F71151C08502A66D44B6F758E3AC2F1DE95F02EB95F0A735 SWAP2 LOG3 PUSH1 0x0 DUP1 SLOAD PUSH1 0x1 PUSH1 0x1 PUSH1 0xA0 SHL SUB NOT AND PUSH1 0x1 PUSH1 0x1 PUSH1 0xA0 SHL SUB SWAP3 SWAP1 SWAP3 AND SWAP2 SWAP1 SWAP2 OR SWAP1 SSTORE JUMP JUMPDEST PUSH2 0x242 DUP3 DUP3 PUSH1 0x40 MLOAD PUSH1 0x24 ADD DUP1 DUP1 PUSH1 0x20 ADD DUP4 PUSH1 0x1 PUSH1 0x1 PUSH1 0xA0 SHL SUB AND DUP2 MSTORE PUSH1 0x20 ADD DUP3 DUP2 SUB DUP3 MSTORE DUP5 DUP2 DUP2 MLOAD DUP2 MSTORE PUSH1 0x20 ADD SWAP2 POP DUP1 MLOAD SWAP1 PUSH1 0x20 ADD SWAP1 DUP1 DUP4 DUP4 PUSH1 0x0 JUMPDEST DUP4 DUP2 LT ISZERO PUSH2 0x1DF JUMPI DUP2 DUP2 ADD MLOAD DUP4 DUP3 ADD MSTORE PUSH1 0x20 ADD PUSH2 0x1C7 JUMP JUMPDEST POP POP POP POP SWAP1 POP SWAP1 DUP2 ADD SWAP1 PUSH1 0x1F AND DUP1 ISZERO PUSH2 0x20C JUMPI DUP1 DUP3 SUB DUP1 MLOAD PUSH1 0x1 DUP4 PUSH1 0x20 SUB PUSH2 0x100 EXP SUB NOT AND DUP2 MSTORE PUSH1 0x20 ADD SWAP2 POP JUMPDEST POP PUSH1 0x40 DUP1 MLOAD PUSH1 0x1F NOT DUP2 DUP5 SUB ADD DUP2 MSTORE SWAP2 SWAP1 MSTORE PUSH1 0x20 DUP2 ADD DUP1 MLOAD PUSH1 0x1 PUSH1 0x1 PUSH1 0xE0 SHL SUB AND PUSH4 0x319AF333 PUSH1 0xE0 SHL OR SWAP1 MSTORE SWAP4 POP PUSH2 0x267 SWAP3 POP POP POP JUMP JUMPDEST POP POP JUMP JUMPDEST PUSH1 0x0 PUSH11 0x636F6E736F6C652E6C6F67 SWAP1 POP PUSH1 0x0 DUP1 DUP4 MLOAD PUSH1 0x20 DUP6 ADD DUP5 GAS STATICCALL POP POP POP JUMP JUMPDEST PUSH2 0x27E DUP2 PUSH2 0x276 PUSH2 0x246 PUSH2 0x281 JUMP JUMPDEST PUSH4 0xFFFFFFFF AND JUMP JUMPDEST POP JUMP JUMPDEST SWAP1 JUMP JUMPDEST INVALID INVALID 0x4E PUSH6 0x77206F776E65 PUSH19 0x2073686F756C64206E6F742062652074686520 PUSH27 0x65726F2061646472657373A2646970667358221220E3E0BA10C64C 0xA7 0xBE PUSH16 0x55392E4C6AF4CDDA5CFB952753CB5168 0xC JUMPDEST AND 0xD6 PUSH22 0x904764736F6C63430007060033000000000000000000 "
	},
	"Assembly": ".code\n  PUSH 80\t\t\tcontract Owner {\\n\\n    addres...\n  PUSH 40\t\t\tcontract Owner {\\n\\n    addres...\n  MSTORE \t\t\tcontract Owner {\\n\\n    addres...\n  CALLVALUE \t\t\tconstructor() {\\n        conso...\n  DUP1 \t\t\tconstructor() {\\n        conso...\n  ISZERO \t\t\tconstructor() {\\n        conso...\n  PUSH [tag] 1\t\t\tconstructor() {\\n        conso...\n  JUMPI \t\t\tconstructor() {\\n        conso...\n  PUSH 0\t\t\tconstructor() {\\n        conso...\n  DUP1 \t\t\tconstructor() {\\n        conso...\n  REVERT \t\t\tconstructor() {\\n        conso...\ntag 1\t\t\tconstructor() {\\n        conso...\n  JUMPDEST \t\t\tconstructor() {\\n        conso...\n  POP \t\t\tconstructor() {\\n        conso...\n  PUSH [tag] 4\t\t\tconsole.log(\"Owner contract de...\n  PUSH 40\t\t\tconsole.log(\"Owner contract de...\n  MLOAD \t\t\tconsole.log(\"Owner contract de...\n  DUP1 \t\t\tconsole.log(\"Owner contract de...\n  PUSH 40\t\t\tconsole.log(\"Owner contract de...\n  ADD \t\t\tconsole.log(\"Owner contract de...\n  PUSH 40\t\t\tconsole.log(\"Owner contract de...\n  MSTORE \t\t\tconsole.log(\"Owner contract de...\n  DUP1 \t\t\tconsole.log(\"Owner contract de...\n  PUSH 1B\t\t\tconsole.log(\"Owner contract de...\n  DUP2 \t\t\tconsole.log(\"Owner contract de...\n  MSTORE \t\t\tconsole.log(\"Owner contract de...\n  PUSH 20\t\t\tconsole.log(\"Owner contract de...\n  ADD \t\t\tconsole.log(\"Owner contract de...\n  PUSH 4F776E657220636F6E7472616374206465706C6F7965642062793A0000000000\t\t\tconsole.log(\"Owner contract de...\n  DUP2 \t\t\tconsole.log(\"Owner contract de...\n  MSTORE \t\t\tconsole.log(\"Owner contract de...\n  POP \t\t\tconsole.log(\"Owner contract de...\n  CALLER \t\t\tmsg.sender\n  PUSH [tag] 5\t\t\tconsole.log\n  PUSH 20\t\t\tconsole.log\n  SHL \t\t\tconsole.log\n  PUSH [tag] 18446744073709551626\t\t\tconsole.log\n  OR \t\t\tconsole.log\n  PUSH 20\t\t\tconsole.log(\"Owner contract de...\n  SHR \t\t\tconsole.log(\"Owner contract de...\n  JUMP [in]\t\t\tconsole.log(\"Owner contract de...\ntag 4\t\t\tconsole.log(\"Owner contract de...\n  JUMPDEST \t\t\tconsole.log(\"Owner contract de...\n  PUSH 0\t\t\towner\n  DUP1 \t\t\towner = msg.sender\n  SLOAD \t\t\towner = msg.sender\n  PUSH 1\t\t\t\n  PUSH 1\t\t\t\n  PUSH A0\t\t\t\n  SHL \t\t\t\n  SUB \t\t\t\n  NOT \t\t\t\n  AND \t\t\towner = msg.sender\n  CALLER \t\t\tmsg.sender\n  OR \t\t\towner = msg.sender\n  DUP1 \t\t\towner = msg.sender\n  DUP3 \t\t\towner = msg.sender\n  SSTORE \t\t\towner = msg.sender\n  PUSH 40\t\t\tOwnerSet(address(0), owner)\n  MLOAD \t\t\tOwnerSet(address(0), owner)\n  PUSH 1\t\t\t\n  PUSH 1\t\t\t\n  PUSH A0\t\t\t\n  SHL \t\t\t\n  SUB \t\t\t\n  SWAP2 \t\t\towner\n  SWAP1 \t\t\towner\n  SWAP2 \t\t\towner\n  AND \t\t\towner\n  SWAP2 \t\t\towner\n  SWAP1 \t\t\towner\n  PUSH 342827C97908E5E2F71151C08502A66D44B6F758E3AC2F1DE95F02EB95F0A735\t\t\tOwnerSet(address(0), owner)\n  SWAP1 \t\t\tOwnerSet(address(0), owner)\n  DUP3 \t\t\towner\n  SWAP1 \t\t\towner\n  LOG3 \t\t\tOwnerSet(address(0), owner)\n  PUSH [tag] 6\t\t\tcontract Owner {\\n\\n    addres...\n  JUMP \t\t\tcontract Owner {\\n\\n    addres...\ntag 5\t\t\t\n  JUMPDEST \t\t\t\n  PUSH [tag] 8\t\t\t\n  DUP3 \t\t\t\n  DUP3 \t\t\t\n  PUSH 40\t\t\t\n  MLOAD \t\t\t\n  PUSH 24\t\t\t\n  ADD \t\t\t\n  DUP1 \t\t\t\n  DUP1 \t\t\t\n  PUSH 20\t\t\t\n  ADD \t\t\t\n  DUP4 \t\t\t\n  PUSH 1\t\t\t\n  PUSH 1\t\t\t\n  PUSH A0\t\t\t\n  SHL \t\t\t\n  SUB \t\t\t\n  AND \t\t\t\n  DUP2 \t\t\t\n  MSTORE \t\t\t\n  PUSH 20\t\t\t\n  ADD \t\t\t\n  DUP3 \t\t\t\n  DUP2 \t\t\t\n  SUB \t\t\t\n  DUP3 \t\t\t\n  MSTORE \t\t\t\n  DUP5 \t\t\t\n  DUP2 \t\t\t\n  DUP2 \t\t\t\n  MLOAD \t\t\t\n  DUP2 \t\t\t\n  MSTORE \t\t\t\n  PUSH 20\t\t\t\n  ADD \t\t\t\n  SWAP2 \t\t\t\n  POP \t\t\t\n  DUP1 \t\t\t\n  MLOAD \t\t\t\n  SWAP1 \t\t\t\n  PUSH 20\t\t\t\n  ADD \t\t\t\n  SWAP1 \t\t\t\n  DUP1 \t\t\t\n  DUP4 \t\t\t\n  DUP4 \t\t\t\n  PUSH 0\t\t\t\ntag 9\t\t\t\n  JUMPDEST \t\t\t\n  DUP4 \t\t\t\n  DUP2 \t\t\t\n  LT \t\t\t\n  ISZERO \t\t\t\n  PUSH [tag] 11\t\t\t\n  JUMPI \t\t\t\n  DUP2 \t\t\t\n  DUP2 \t\t\t\n  ADD \t\t\t\n  MLOAD \t\t\t\n  DUP4 \t\t\t\n  DUP3 \t\t\t\n  ADD \t\t\t\n  MSTORE \t\t\t\n  PUSH 20\t\t\t\n  ADD \t\t\t\n  PUSH [tag] 9\t\t\t\n  JUMP \t\t\t\ntag 11\t\t\t\n  JUMPDEST \t\t\t\n  POP \t\t\t\n  POP \t\t\t\n  POP \t\t\t\n  POP \t\t\t\n  SWAP1 \t\t\t\n  POP \t\t\t\n  SWAP1 \t\t\t\n  DUP2 \t\t\t\n  ADD \t\t\t\n  SWAP1 \t\t\t\n  PUSH 1F\t\t\t\n  AND \t\t\t\n  DUP1 \t\t\t\n  ISZERO \t\t\t\n  PUSH [tag] 12\t\t\t\n  JUMPI \t\t\t\n  DUP1 \t\t\t\n  DUP3 \t\t\t\n  SUB \t\t\t\n  DUP1 \t\t\t\n  MLOAD \t\t\t\n  PUSH 1\t\t\t\n  DUP4 \t\t\t\n  PUSH 20\t\t\t\n  SUB \t\t\t\n  PUSH 100\t\t\t\n  EXP \t\t\t\n  SUB \t\t\t\n  NOT \t\t\t\n  AND \t\t\t\n  DUP2 \t\t\t\n  MSTORE \t\t\t\n  PUSH 20\t\t\t\n  ADD \t\t\t\n  SWAP2 \t\t\t\n  POP \t\t\t\ntag 12\t\t\t\n  JUMPDEST \t\t\t\n  POP \t\t\t\n  PUSH 40\t\t\t\n  DUP1 \t\t\t\n  MLOAD \t\t\t\n  PUSH 1F\t\t\t\n  NOT \t\t\t\n  DUP2 \t\t\t\n  DUP5 \t\t\t\n  SUB \t\t\t\n  ADD \t\t\t\n  DUP2 \t\t\t\n  MSTORE \t\t\t\n  SWAP2 \t\t\t\n  SWAP1 \t\t\t\n  MSTORE \t\t\t\n  PUSH 20\t\t\t\n  DUP2 \t\t\t\n  ADD \t\t\t\n  DUP1 \t\t\t\n  MLOAD \t\t\t\n  PUSH 1\t\t\t\n  PUSH 1\t\t\t\n  PUSH E0\t\t\t\n  SHL \t\t\t\n  SUB \t\t\t\n  SWAP1 \t\t\t\n  DUP2 \t\t\t\n  AND \t\t\t\n  PUSH 319AF333\t\t\t\n  PUSH E0\t\t\t\n  SHL \t\t\t\n  OR \t\t\t\n  SWAP1 \t\t\t\n  SWAP2 \t\t\t\n  MSTORE \t\t\t\n  SWAP1 \t\t\t\n  SWAP5 \t\t\t\n  POP \t\t\t\n  PUSH [tag] 13\t\t\t\n  AND \t\t\t\n  SWAP3 \t\t\t\n  POP \t\t\t\n  POP \t\t\t\n  POP \t\t\t\n  JUMP [in]\t\t\t\ntag 8\t\t\t\n  JUMPDEST \t\t\t\n  POP \t\t\t\n  POP \t\t\t\n  JUMP [out]\t\t\t\ntag 13\t\t\t owner\");\\n        _;\\n    }\\n...\n  JUMPDEST \t\t\t owner\");\\n        _;\\n    }\\n...\n  PUSH [tag] 15\t\t\ts owner\\n     */\\n    construc...\n  DUP2 \t\t\t consol\n  PUSH [tag] 16\t\t\ts owner\\n     */\\n    construc...\n  PUSH [tag] 18446744073709551627\t\t\t */\\n    constructor() {\\n    ...\n  PUSH [tag] 17\t\t\t */\\n    constructor() {\\n    ...\n  PUSH 20\t\t\t */\\n    constructor() {\\n    ...\n  SHL \t\t\t */\\n    constructor() {\\n    ...\n  OR \t\t\t */\\n    constructor() {\\n    ...\n  PUSH [tag] 18\t\t\ts owner\\n   \n  JUMP [in]\t\t\ts owner\\n     */\\n    construc...\ntag 16\t\t\ts owner\\n     */\\n    construc...\n  JUMPDEST \t\t\ts owner\\n     */\\n    construc...\n  PUSH 20\t\t\ts owner\\n     */\\n    construc...\n  SHR \t\t\ts owner\\n     */\\n    construc...\n  JUMP [in]\t\t\ts owner\\n     */\\n    construc...\ntag 15\t\t\ts owner\\n     */\\n    construc...\n  JUMPDEST \t\t\ts owner\\n     */\\n    construc...\n  POP \t\t\t owner\");\\n        _;\\n    }\\n...\n  JUMP [out]\t\t\t owner\");\\n        _;\\n    }\\n...\ntag 17\t\t\ts private owner;\\n\\n    // eve...\n  JUMPDEST \t\t\ts private owner;\\n\\n    // eve...\n  PUSH 0\t\t\tOwner, address indexed\n  PUSH 636F6E736F6C652E6C6F67\t\t\tt & change owner\\n */\\ncontrac...\n  SWAP1 \t\t\tOwner, address indexed newOwne...\n  POP \t\t\tOwner, address indexed newOwne...\n  PUSH 0\t\t\t \n  DUP1 \t\t\ta\n  DUP4 \t\t\t // Thi\n  MLOAD \t\t\t       // This\n  PUSH 20\t\t\t b\n  DUP6 \t\t\t to Eth\n  ADD \t\t\t and to Ether ba\n  DUP5 \t\t\t all\\n        /\n  GAS \t\t\t', ex\n  STATICCALL \t\t\tof 'require' evaluates to 'fal...\n  POP \t\t\tf the first argument of 'requi...\n  POP \t\t\t{\\n        // If the first arg...\n  POP \t\t\t{\\n        // If the first arg...\n  JUMP [out]\t\t\t{\\n        // If the first arg...\ntag 18\t\t\t use 'require' to check if fun...\n  JUMPDEST \t\t\t use 'require' to check if fun...\n  SWAP1 \t\t\tr ==\n  JUMP [out]\t\t\t      require(msg.sender == ow...\ntag 6\t\t\tcontract Owner {\\n\\n    addres...\n  JUMPDEST \t\t\tcontract Owner {\\n\\n    addres...\n  PUSH #[$] 0000000000000000000000000000000000000000000000000000000000000000\t\t\tcontract Owner {\\n\\n    addres...\n  DUP1 \t\t\tcontract Owner {\\n\\n    addres...\n  PUSH [$] 0000000000000000000000000000000000000000000000000000000000000000\t\t\tcontract Owner {\\n\\n    addres...\n  PUSH 0\t\t\tcontract Owner {\\n\\n    addres...\n  CODECOPY \t\t\tcontract Owner {\\n\\n    addres...\n  PUSH 0\t\t\tcontract Owner {\\n\\n    addres...\n  RETURN \t\t\tcontract Owner {\\n\\n    addres...\n.data\n  0:\n    .code\n      PUSH 80\t\t\tcontract Owner {\\n\\n    addres...\n      PUSH 40\t\t\tcontract Owner {\\n\\n    addres...\n      MSTORE \t\t\tcontract Owner {\\n\\n    addres...\n      CALLVALUE \t\t\tcontract Owner {\\n\\n    addres...\n      DUP1 \t\t\tcontract Owner {\\n\\n    addres...\n      ISZERO \t\t\tcontract Owner {\\n\\n    addres...\n      PUSH [tag] 1\t\t\tcontract Owner {\\n\\n    addres...\n      JUMPI \t\t\tcontract Owner {\\n\\n    addres...\n      PUSH 0\t\t\tcontract Owner {\\n\\n    addres...\n      DUP1 \t\t\tcontract Owner {\\n\\n    addres...\n      REVERT \t\t\tcontract Owner {\\n\\n    addres...\n    tag 1\t\t\tcontract Owner {\\n\\n    addres...\n      JUMPDEST \t\t\tcontract Owner {\\n\\n    addres...\n      POP \t\t\tcontract Owner {\\n\\n    addres...\n      PUSH 4\t\t\tcontract Owner {\\n\\n    addres...\n      CALLDATASIZE \t\t\tcontract Owner {\\n\\n    addres...\n      LT \t\t\tcontract Owner {\\n\\n    addres...\n      PUSH [tag] 2\t\t\tcontract Owner {\\n\\n    addres...\n      JUMPI \t\t\tcontract Owner {\\n\\n    addres...\n      PUSH 0\t\t\tcontract Owner {\\n\\n    addres...\n      CALLDATALOAD \t\t\tcontract Owner {\\n\\n    addres...\n      PUSH E0\t\t\tcontract Owner {\\n\\n    addres...\n      SHR \t\t\tcontract Owner {\\n\\n    addres...\n      DUP1 \t\t\tcontract Owner {\\n\\n    addres...\n      PUSH 893D20E8\t\t\tcontract Owner {\\n\\n    addres...\n      EQ \t\t\tcontract Owner {\\n\\n    addres...\n      PUSH [tag] 3\t\t\tcontract Owner {\\n\\n    addres...\n      JUMPI \t\t\tcontract Owner {\\n\\n    addres...\n      DUP1 \t\t\tcontract Owner {\\n\\n    addres...\n      PUSH A6F9DAE1\t\t\tcontract Owner {\\n\\n    addres...\n      EQ \t\t\tcontract Owner {\\n\\n    addres...\n      PUSH [tag] 4\t\t\tcontract Owner {\\n\\n    addres...\n      JUMPI \t\t\tcontract Owner {\\n\\n    addres...\n    tag 2\t\t\tcontract Owner {\\n\\n    addres...\n      JUMPDEST \t\t\tcontract Owner {\\n\\n    addres...\n      PUSH 0\t\t\tcontract Owner {\\n\\n    addres...\n      DUP1 \t\t\tcontract Owner {\\n\\n    addres...\n      REVERT \t\t\tcontract Owner {\\n\\n    addres...\n    tag 3\t\t\tfunction getOwner() external v...\n      JUMPDEST \t\t\tfunction getOwner() external v...\n      PUSH [tag] 5\t\t\tfunction getOwner() external v...\n      PUSH [tag] 6\t\t\tfunction getOwner() external v...\n      JUMP [in]\t\t\tfunction getOwner() external v...\n    tag 5\t\t\tfunction getOwner() external v...\n      JUMPDEST \t\t\tfunction getOwner() external v...\n      PUSH 40\t\t\tfunction getOwner() external v...\n      DUP1 \t\t\tfunction getOwner() external v...\n      MLOAD \t\t\tfunction getOwner() external v...\n      PUSH 1\t\t\t\n      PUSH 1\t\t\t\n      PUSH A0\t\t\t\n      SHL \t\t\t\n      SUB \t\t\t\n      SWAP1 \t\t\tfunction getOwner() external v...\n      SWAP3 \t\t\tfunction getOwner() external v...\n      AND \t\t\tfunction getOwner() external v...\n      DUP3 \t\t\tfunction getOwner() external v...\n      MSTORE \t\t\tfunction getOwner() external v...\n      MLOAD \t\t\tfunction getOwner() external v...\n      SWAP1 \t\t\tfunction getOwner() external v...\n      DUP2 \t\t\tfunction getOwner() external v...\n      SWAP1 \t\t\tfunction getOwner() external v...\n      SUB \t\t\tfunction getOwner() external v...\n      PUSH 20\t\t\tfunction getOwner() external v...\n      ADD \t\t\tfunction getOwner() external v...\n      SWAP1 \t\t\tfunction getOwner() external v...\n      RETURN \t\t\tfunction getOwner() external v...\n    tag 4\t\t\tfunction changeOwner(address n...\n      JUMPDEST \t\t\tfunction changeOwner(address n...\n      PUSH [tag] 7\t\t\tfunction changeOwner(address n...\n      PUSH 4\t\t\tfunction changeOwner(address n...\n      DUP1 \t\t\tfunction changeOwner(address n...\n      CALLDATASIZE \t\t\tfunction changeOwner(address n...\n      SUB \t\t\tfunction changeOwner(address n...\n      PUSH 20\t\t\tfunction changeOwner(address n...\n      DUP2 \t\t\tfunction changeOwner(address n...\n      LT \t\t\tfunction changeOwner(address n...\n      ISZERO \t\t\tfunction changeOwner(address n...\n      PUSH [tag] 8\t\t\tfunction changeOwner(address n...\n      JUMPI \t\t\tfunction changeOwner(address n...\n      PUSH 0\t\t\tfunction changeOwner(address n...\n      DUP1 \t\t\tfunction changeOwner(address n...\n      REVERT \t\t\tfunction changeOwner(address n...\n    tag 8\t\t\tfunction changeOwner(address n...\n      JUMPDEST \t\t\tfunction changeOwner(address n...\n      POP \t\t\t\n      CALLDATALOAD \t\t\tfunction changeOwner(address n...\n      PUSH 1\t\t\t\n      PUSH 1\t\t\t\n      PUSH A0\t\t\t\n      SHL \t\t\t\n      SUB \t\t\t\n      AND \t\t\tfunction changeOwner(address n...\n      PUSH [tag] 9\t\t\tfunction changeOwner(address n...\n      JUMP [in]\t\t\tfunction changeOwner(address n...\n    tag 7\t\t\tfunction changeOwner(address n...\n      JUMPDEST \t\t\tfunction changeOwner(address n...\n      STOP \t\t\tfunction changeOwner(address n...\n    tag 6\t\t\tfunction getOwner() external v...\n      JUMPDEST \t\t\tfunction getOwner() external v...\n      PUSH 0\t\t\taddress\n      SLOAD \t\t\towner\n      PUSH 1\t\t\t\n      PUSH 1\t\t\t\n      PUSH A0\t\t\t\n      SHL \t\t\t\n      SUB \t\t\t\n      AND \t\t\towner\n      SWAP1 \t\t\tfunction getOwner() external v...\n      JUMP [out]\t\t\tfunction getOwner() external v...\n    tag 9\t\t\tfunction changeOwner(address n...\n      JUMPDEST \t\t\tfunction changeOwner(address n...\n      PUSH 0\t\t\towner\n      SLOAD \t\t\towner\n      PUSH 1\t\t\t\n      PUSH 1\t\t\t\n      PUSH A0\t\t\t\n      SHL \t\t\t\n      SUB \t\t\t\n      AND \t\t\towner\n      CALLER \t\t\tmsg.sender\n      EQ \t\t\tmsg.sender == owner\n      PUSH [tag] 15\t\t\trequire(msg.sender == owner, \"...\n      JUMPI \t\t\trequire(msg.sender == owner, \"...\n      PUSH 40\t\t\trequire(msg.sender == owner, \"...\n      DUP1 \t\t\trequire(msg.sender == owner, \"...\n      MLOAD \t\t\trequire(msg.sender == owner, \"...\n      PUSH 461BCD\t\t\t\n      PUSH E5\t\t\t\n      SHL \t\t\t\n      DUP2 \t\t\trequire(msg.sender == owner, \"...\n      MSTORE \t\t\trequire(msg.sender == owner, \"...\n      PUSH 20\t\t\trequire(msg.sender == owner, \"...\n      PUSH 4\t\t\trequire(msg.sender == owner, \"...\n      DUP3 \t\t\trequire(msg.sender == owner, \"...\n      ADD \t\t\trequire(msg.sender == owner, \"...\n      MSTORE \t\t\trequire(msg.sender == owner, \"...\n      PUSH 13\t\t\trequire(msg.sender == owner, \"...\n      PUSH 24\t\t\trequire(msg.sender == owner, \"...\n      DUP3 \t\t\trequire(msg.sender == owner, \"...\n      ADD \t\t\trequire(msg.sender == owner, \"...\n      MSTORE \t\t\trequire(msg.sender == owner, \"...\n      PUSH 21B0B63632B91034B9903737BA1037BBB732B9\t\t\t\n      PUSH 69\t\t\t\n      SHL \t\t\t\n      PUSH 44\t\t\trequire(msg.sender == owner, \"...\n      DUP3 \t\t\trequire(msg.sender == owner, \"...\n      ADD \t\t\trequire(msg.sender == owner, \"...\n      MSTORE \t\t\trequire(msg.sender == owner, \"...\n      SWAP1 \t\t\trequire(msg.sender == owner, \"...\n      MLOAD \t\t\trequire(msg.sender == owner, \"...\n      SWAP1 \t\t\trequire(msg.sender == owner, \"...\n      DUP2 \t\t\trequire(msg.sender == owner, \"...\n      SWAP1 \t\t\trequire(msg.sender == owner, \"...\n      SUB \t\t\trequire(msg.sender == owner, \"...\n      PUSH 64\t\t\trequire(msg.sender == owner, \"...\n      ADD \t\t\trequire(msg.sender == owner, \"...\n      SWAP1 \t\t\trequire(msg.sender == owner, \"...\n      REVERT \t\t\trequire(msg.sender == owner, \"...\n    tag 15\t\t\trequire(msg.sender == owner, \"...\n      JUMPDEST \t\t\trequire(msg.sender == owner, \"...\n      PUSH 1\t\t\t\n      PUSH 1\t\t\t\n      PUSH A0\t\t\t\n      SHL \t\t\t\n      SUB \t\t\t\n      DUP2 \t\t\tnewOwner != address(0)\n      AND \t\t\tnewOwner != address(0)\n      PUSH [tag] 17\t\t\trequire(newOwner != address(0)...\n      JUMPI \t\t\trequire(newOwner != address(0)...\n      PUSH 40\t\t\trequire(newOwner != address(0)...\n      MLOAD \t\t\trequire(newOwner != address(0)...\n      PUSH 461BCD\t\t\t\n      PUSH E5\t\t\t\n      SHL \t\t\t\n      DUP2 \t\t\trequire(newOwner != address(0)...\n      MSTORE \t\t\trequire(newOwner != address(0)...\n      PUSH 4\t\t\trequire(newOwner != address(0)...\n      ADD \t\t\trequire(newOwner != address(0)...\n      DUP1 \t\t\trequire(newOwner != address(0)...\n      DUP1 \t\t\trequire(newOwner != address(0)...\n      PUSH 20\t\t\trequire(newOwner != address(0)...\n      ADD \t\t\trequire(newOwner != address(0)...\n      DUP3 \t\t\trequire(newOwner != address(0)...\n      DUP2 \t\t\trequire(newOwner != address(0)...\n      SUB \t\t\trequire(newOwner != address(0)...\n      DUP3 \t\t\trequire(newOwner != address(0)...\n      MSTORE \t\t\trequire(newOwner != address(0)...\n      PUSH 28\t\t\trequire(newOwner != address(0)...\n      DUP2 \t\t\trequire(newOwner != address(0)...\n      MSTORE \t\t\trequire(newOwner != address(0)...\n      PUSH 20\t\t\trequire(newOwner != address(0)...\n      ADD \t\t\trequire(newOwner != address(0)...\n      DUP1 \t\t\trequire(newOwner != address(0)...\n      PUSH data CC3DA1B33DFBB4B5895F8D30BAE36882DA682315B7B5696515378BE9E9F30D42\t\t\trequire(newOwner != address(0)...\n      PUSH 28\t\t\trequire(newOwner != address(0)...\n      SWAP2 \t\t\trequire(newOwner != address(0)...\n      CODECOPY \t\t\trequire(newOwner != address(0)...\n      PUSH 40\t\t\trequire(newOwner != address(0)...\n      ADD \t\t\trequire(newOwner != address(0)...\n      SWAP2 \t\t\trequire(newOwner != address(0)...\n      POP \t\t\trequire(newOwner != address(0)...\n      POP \t\t\trequire(newOwner != address(0)...\n      PUSH 40\t\t\trequire(newOwner != address(0)...\n      MLOAD \t\t\trequire(newOwner != address(0)...\n      DUP1 \t\t\trequire(newOwner != address(0)...\n      SWAP2 \t\t\trequire(newOwner != address(0)...\n      SUB \t\t\trequire(newOwner != address(0)...\n      SWAP1 \t\t\trequire(newOwner != address(0)...\n      REVERT \t\t\trequire(newOwner != address(0)...\n    tag 17\t\t\trequire(newOwner != address(0)...\n      JUMPDEST \t\t\trequire(newOwner != address(0)...\n      PUSH 0\t\t\towner\n      DUP1 \t\t\towner\n      SLOAD \t\t\towner\n      PUSH 40\t\t\tOwnerSet(owner, newOwner)\n      MLOAD \t\t\tOwnerSet(owner, newOwner)\n      PUSH 1\t\t\t\n      PUSH 1\t\t\t\n      PUSH A0\t\t\t\n      SHL \t\t\t\n      SUB \t\t\t\n      DUP1 \t\t\tOwnerSet(owner, newOwner)\n      DUP6 \t\t\tOwnerSet(owner, newOwner)\n      AND \t\t\tOwnerSet(owner, newOwner)\n      SWAP4 \t\t\tOwnerSet(owner, newOwner)\n      SWAP3 \t\t\towner\n      AND \t\t\towner\n      SWAP2 \t\t\towner\n      PUSH 342827C97908E5E2F71151C08502A66D44B6F758E3AC2F1DE95F02EB95F0A735\t\t\tOwnerSet(owner, newOwner)\n      SWAP2 \t\t\tOwnerSet(owner, newOwner)\n      LOG3 \t\t\tOwnerSet(owner, newOwner)\n      PUSH 0\t\t\towner\n      DUP1 \t\t\towner = newOwner\n      SLOAD \t\t\towner = newOwner\n      PUSH 1\t\t\t\n      PUSH 1\t\t\t\n      PUSH A0\t\t\t\n      SHL \t\t\t\n      SUB \t\t\t\n      NOT \t\t\t\n      AND \t\t\towner = newOwner\n      PUSH 1\t\t\t\n      PUSH 1\t\t\t\n      PUSH A0\t\t\t\n      SHL \t\t\t\n      SUB \t\t\t\n      SWAP3 \t\t\towner = newOwner\n      SWAP1 \t\t\towner = newOwner\n      SWAP3 \t\t\towner = newOwner\n      AND \t\t\towner = newOwner\n      SWAP2 \t\t\towner = newOwner\n      SWAP1 \t\t\towner = newOwner\n      SWAP2 \t\t\towner = newOwner\n      OR \t\t\towner = newOwner\n      SWAP1 \t\t\towner = newOwner\n      SSTORE \t\t\towner = newOwner\n      JUMP [out]\t\t\tfunction changeOwner(address n...\n    tag 10\t\t\t\n      JUMPDEST \t\t\t\n      PUSH [tag] 19\t\t\t\n      DUP3 \t\t\t\n      DUP3 \t\t\t\n      PUSH 40\t\t\t\n      MLOAD \t\t\t\n      PUSH 24\t\t\t\n      ADD \t\t\t\n      DUP1 \t\t\t\n      DUP1 \t\t\t\n      PUSH 20\t\t\t\n      ADD \t\t\t\n      DUP4 \t\t\t\n      PUSH 1\t\t\t\n      PUSH 1\t\t\t\n      PUSH A0\t\t\t\n      SHL \t\t\t\n      SUB \t\t\t\n      AND \t\t\t\n      DUP2 \t\t\t\n      MSTORE \t\t\t\n      PUSH 20\t\t\t\n      ADD \t\t\t\n      DUP3 \t\t\t\n      DUP2 \t\t\t\n      SUB \t\t\t\n      DUP3 \t\t\t\n      MSTORE \t\t\t\n      DUP5 \t\t\t\n      DUP2 \t\t\t\n      DUP2 \t\t\t\n      MLOAD \t\t\t\n      DUP2 \t\t\t\n      MSTORE \t\t\t\n      PUSH 20\t\t\t\n      ADD \t\t\t\n      SWAP2 \t\t\t\n      POP \t\t\t\n      DUP1 \t\t\t\n      MLOAD \t\t\t\n      SWAP1 \t\t\t\n      PUSH 20\t\t\t\n      ADD \t\t\t\n      SWAP1 \t\t\t\n      DUP1 \t\t\t\n      DUP4 \t\t\t\n      DUP4 \t\t\t\n      PUSH 0\t\t\t\n    tag 20\t\t\t\n      JUMPDEST \t\t\t\n      DUP4 \t\t\t\n      DUP2 \t\t\t\n      LT \t\t\t\n      ISZERO \t\t\t\n      PUSH [tag] 22\t\t\t\n      JUMPI \t\t\t\n      DUP2 \t\t\t\n      DUP2 \t\t\t\n      ADD \t\t\t\n      MLOAD \t\t\t\n      DUP4 \t\t\t\n      DUP3 \t\t\t\n      ADD \t\t\t\n      MSTORE \t\t\t\n      PUSH 20\t\t\t\n      ADD \t\t\t\n      PUSH [tag] 20\t\t\t\n      JUMP \t\t\t\n    tag 22\t\t\t\n      JUMPDEST \t\t\t\n      POP \t\t\t\n      POP \t\t\t\n      POP \t\t\t\n      POP \t\t\t\n      SWAP1 \t\t\t\n      POP \t\t\t\n      SWAP1 \t\t\t\n      DUP2 \t\t\t\n      ADD \t\t\t\n      SWAP1 \t\t\t\n      PUSH 1F\t\t\t\n      AND \t\t\t\n      DUP1 \t\t\t\n      ISZERO \t\t\t\n      PUSH [tag] 23\t\t\t\n      JUMPI \t\t\t\n      DUP1 \t\t\t\n      DUP3 \t\t\t\n      SUB \t\t\t\n      DUP1 \t\t\t\n      MLOAD \t\t\t\n      PUSH 1\t\t\t\n      DUP4 \t\t\t\n      PUSH 20\t\t\t\n      SUB \t\t\t\n      PUSH 100\t\t\t\n      EXP \t\t\t\n      SUB \t\t\t\n      NOT \t\t\t\n      AND \t\t\t\n      DUP2 \t\t\t\n      MSTORE \t\t\t\n      PUSH 20\t\t\t\n      ADD \t\t\t\n      SWAP2 \t\t\t\n      POP \t\t\t\n    tag 23\t\t\t\n      JUMPDEST \t\t\t\n      POP \t\t\t\n      PUSH 40\t\t\t\n      DUP1 \t\t\t\n      MLOAD \t\t\t\n      PUSH 1F\t\t\t\n      NOT \t\t\t\n      DUP2 \t\t\t\n      DUP5 \t\t\t\n      SUB \t\t\t\n      ADD \t\t\t\n      DUP2 \t\t\t\n      MSTORE \t\t\t\n      SWAP2 \t\t\t\n      SWAP1 \t\t\t\n      MSTORE \t\t\t\n      PUSH 20\t\t\t\n      DUP2 \t\t\t\n      ADD \t\t\t\n      DUP1 \t\t\t\n      MLOAD \t\t\t\n      PUSH 1\t\t\t\n      PUSH 1\t\t\t\n      PUSH E0\t\t\t\n      SHL \t\t\t\n      SUB \t\t\t\n      AND \t\t\t\n      PUSH 319AF333\t\t\t\n      PUSH E0\t\t\t\n      SHL \t\t\t\n      OR \t\t\t\n      SWAP1 \t\t\t\n      MSTORE \t\t\t\n      SWAP4 \t\t\t\n      POP \t\t\t\n      PUSH [tag] 24\t\t\t\n      SWAP3 \t\t\t\n      POP \t\t\t\n      POP \t\t\t\n      POP \t\t\t\n      JUMP [in]\t\t\t\n    tag 19\t\t\t\n      JUMPDEST \t\t\t\n      POP \t\t\t\n      POP \t\t\t\n      JUMP [out]\t\t\t\n    tag 11\t\t\ts private owner;\\n\\n    // eve...\n      JUMPDEST \t\t\ts private owner;\\n\\n    // eve...\n      PUSH 0\t\t\tOwner, address indexed\n      PUSH 636F6E736F6C652E6C6F67\t\t\tt & change owner\\n */\\ncontrac...\n      SWAP1 \t\t\tOwner, address indexed newOwne...\n      POP \t\t\tOwner, address indexed newOwne...\n      PUSH 0\t\t\t \n      DUP1 \t\t\ta\n      DUP4 \t\t\t // Thi\n      MLOAD \t\t\t       // This\n      PUSH 20\t\t\t b\n      DUP6 \t\t\t to Eth\n      ADD \t\t\t and to Ether ba\n      DUP5 \t\t\t all\\n        /\n      GAS \t\t\t', ex\n      STATICCALL \t\t\tof 'require' evaluates to 'fal...\n      POP \t\t\tf the first argument of 'requi...\n      POP \t\t\t{\\n        // If the first arg...\n      POP \t\t\t{\\n        // If the first arg...\n      JUMP [out]\t\t\t{\\n        // If the first arg...\n    tag 24\t\t\t owner\");\\n        _;\\n    }\\n...\n      JUMPDEST \t\t\t owner\");\\n        _;\\n    }\\n...\n      PUSH [tag] 27\t\t\ts owner\\n     */\\n    construc...\n      DUP2 \t\t\t consol\n      PUSH [tag] 28\t\t\ts owner\\n     */\\n    construc...\n      PUSH [tag] 11\t\t\t */\\n    constructor() {\\n    ...\n      PUSH [tag] 29\t\t\ts owner\\n   \n      JUMP [in]\t\t\ts owner\\n     */\\n    construc...\n    tag 28\t\t\ts owner\\n     */\\n    construc...\n      JUMPDEST \t\t\ts owner\\n     */\\n    construc...\n      PUSH FFFFFFFF\t\t\ts owner\\n     */\\n    construc...\n      AND \t\t\ts owner\\n     */\\n    construc...\n      JUMP [in]\t\t\ts owner\\n     */\\n    construc...\n    tag 27\t\t\ts owner\\n     */\\n    construc...\n      JUMPDEST \t\t\ts owner\\n     */\\n    construc...\n      POP \t\t\t owner\");\\n        _;\\n    }\\n...\n      JUMP [out]\t\t\t owner\");\\n        _;\\n    }\\n...\n    tag 29\t\t\t use 'require' to check if fun...\n      JUMPDEST \t\t\t use 'require' to check if fun...\n      SWAP1 \t\t\tr ==\n      JUMP [out]\t\t\t      require(msg.sender == ow...\n    tag 12\t\t\t\n      JUMPDEST \t\t\t\n      INVALID \t\t\t\n    .data\n      CC3DA1B33DFBB4B5895F8D30BAE36882DA682315B7B5696515378BE9E9F30D42:\n        4e6577206f776e65722073686f756c64206e6f7420626520746865207a65726f2061646472657373\n"
}